:020000040800F2
:1000000000500020C10500085D0500085F050008DC
:100010006105000863050008650500080000000090
:10002000000000000000000000000000211E000889
:100030006705000800000000C11E000869050008EF
:100040000906000809060008090600080906000854
:100050000906000809060008090600080906000844
:100060000906000809060008090600080906000834
:100070000906000809060008090600080906000824
:100080008105000891050008090600080906000816
:100090000906000809060008090600080906000804
:1000A00009060008090600080906000809060008F4
:1000B00009060008090600080906000809060008E4
:1000C00009060008090600080906000809060008D4
:1000D0000906000809060008A1050008090600082D
:1000E000B105000809060008090600080000000024
:1000F0000000000000000000000000000000000000
:0C01000000000000000000005FF808F1A3
:100110000348044B834202D0034B03B11847704796
:100120001000002010000020000000000548064BD1
:100130001B1AD90F01EBA301491002D0034B03B1E5
:100140001847704710000020100000200000000039
:1001500010B5064C237843B9FFF7DAFF044B13B10F
:100160000448AFF300800123237010BD100000206D
:10017000000000000C38000808B5054B1BB105490C
:100180000548AFF30080BDE80840FFF7CFBF00BFD0
:1001900000000000140000200C3800082DE9F04396
:1001A00089B004AD002404940594069407942A4B66
:1001B0009A6942F020029A619A6902F02002019243
:1001C000019A9A6942F004029A619A6902F0040263
:1001D0000292029A9A6942F008029A619B6903F0BE
:1001E00008030393039BDFF874902246C02148461E
:1001F00000F073FD1A4E22460121304600F06DFDDD
:10020000C02304930127059706944FF00208CDF808
:100210001C802946484600F04FFC04970597069439
:10022000CDF81C802946304600F046FC4FF4805340
:1002300004930C4B059306942946304600F03CFC91
:1002400022460521282000F071FA282000F07EFACD
:1002500009B0BDE8F08300BF001002400008014073
:10026000000C01400000211000B583B00E4B5A690C
:1002700042F001025A615B6903F001030193019BA3
:1002800000220521102000F051FA102000F05EFA43
:1002900000220521112000F049FA112000F056FA41
:1002A00003B05DF804FB00BF0010024008B54FF436
:1002B0007A7001F005FDFAE708B5012001F000FDB4
:1002C000FBE7000038B5084D084C102229462046AF
:1002D00001F02CF9012001F0F3FC10222946204600
:1002E00001F036FC38BD00BF04010020BC00002036
:1002F000B0F5805F00D0704708B50A2001F0E0FC3F
:100300004FF48051064800F0E1FC00B108BD8021A7
:1003100000F1804000F5843000F0E5FCF6E700BF16
:10032000000C014072B6FEE708B50A480A4B0360AC
:100330004FF4E133436000238360C36003610C2208
:1003400042618361C36101F0C1F800B908BDFFF7E4
:10035000E9FF00BFBC0000200044004010B590B091
:1003600006AC28220021204603F015FA0023019351
:100370000293039304930593012306934FF4803370
:100380000793204600F0DCFC78B90F23019301238A
:100390000293002103914FF480630493059101A817
:1003A00000F000FF18B910B010BDFFF7BBFFFFF75A
:1003B000B9FF000008B500F04FF9FFF7CFFFFFF7D6
:1003C000EDFEFFF751FFFFF7AFFF10220B490C487E
:1003D00001F0BEFB01F0ECFB0A4A00210A4801F0E3
:1003E00015FC0A4B18600A4A00210A4801F00EFC6D
:1003F000094B186001F0EEFBFEE700BF040100208E
:10040000BC00002074380008AD0200083000002055
:1004100050380008B90200082C00002000B583B055
:10042000114B9A6942F001029A619A6902F0010245
:100430000092009ADA6942F08052DA61DB6903F0D7
:1004400080530193019B00220F216FF0010000F007
:100450006DF9064A536823F0E06343F0007353607C
:1004600003B05DF804FB00BF001002400000014033
:10047000F0B587B0002302930393049305930268B9
:10048000304B9A4201D007B0F0BD044603F5E63385
:10049000DA6942F40032DA61DA6902F40032009279
:1004A000009A9A6942F004029A619B6903F004037E
:1004B0000193019B042302930223039303230593D7
:1004C00002AF214E3946304600F0F6FA0823029377
:1004D0000025039504953946304600F0EDFA1B4897
:1004E0001B4B0360456085608023C36005614561E7
:1004F0008561C56100F062F9F0B9144BE3635C6299
:100500001448154B0360102343600023836080224E
:10051000C260036143618361C36100F04FF970B948
:100520000C4BA3635C6200220521262000F0FEF83C
:10053000262000F00BF9A6E7FFF7F4FEDDE7FFF752
:10054000F1FEEDE700440040000801407800002083
:100550006C0002403400002080000240FEE7FEE70D
:10056000FEE7FEE7FEE7704708B500F087F802F007
:1005700091FE012800D108BD01F0C4FCFBE700009A
:1005800008B5024800F0F6F908BD00BF7800002069
:1005900008B5024800F0EEF908BD00BF34000020A5
:1005A00008B5024801F0E4F808BD00BFBC00002017
:1005B00008B54FF4805000F09FFB08BD7047000065
:1005C000FFF7FCFF0B480C490C4A002302E0D4580B
:1005D000C4500433C4188C42F9D3094A094C00238F
:1005E00001E013600432A242FBD303F0DDF8FFF711
:1005F000E1FE70470000002010000020CC38000809
:1006000010000020681A0020FEE7000010B5044624
:100610000E4B1A784FF47A73B3FBF2F30C4A10685E
:10062000B0FBF3F000F0A0F868B90F2C01D901205D
:100630000AE0002221464FF0FF3000F077F8054B2A
:100640001C60002000E0012010BD00BF040000205D
:10065000000000200800002008B5074A136843F096
:1006600010031360032000F04FF80F20FFF7CEFFB8
:10067000FFF7D4FE002008BD00200240034A1168A5
:10068000034B1B780B441360704700BF140100201C
:1006900004000020014B1868704700BF14010020BF
:1006A000002808DB0901C9B200F1604000F5614093
:1006B00080F80013704700F00F000901C9B2014B28
:1006C0001954704714ED00E000B500F00700C0F1C8
:1006D000070CBCF1040F28BF4FF0040C031D062BC0
:1006E0000FD9C31E4FF0FF3E0EFA0CF021EA0001B5
:1006F00099400EFA03FE22EA0E0241EA02005DF87A
:1007000004FB0023EEE70000074AD36823F4E0630C
:100710001B041B0C000200F4E060034343F0BF63C2
:1007200043F40033D360704700ED00E010B5044699
:10073000054BD868C0F30220FFF7C6FF01462046EC
:10074000FFF7AEFF10BD00BF00ED00E0002807DBA3
:1007500000F01F02400901239340024A42F8203072
:10076000704700BF00E100E00138B0F1807F0BD29C
:100770004FF0E0235861054AF02182F82310002051
:10078000986107221A6170470120704700ED00E070
:1007900030B40124056CAC40C56B6C6004686360C8
:1007A0004368102B05D0036899600368DA6030BC99
:1007B000704703689A600368D960F8E750B310B4D3
:1007C00002460168144B0B441448A0FB03031B09A9
:1007D0009B001364124BD363022382F82130086814
:1007E0006FF30D10536894682343D468234314694E
:1007F00023435469234394692343D4692343034324
:100800000B6000209063012382F8213082F82000E1
:1008100010BC704701207047F8FFFDBFCDCCCCCC99
:100820000000024038B5044690F82000012831D07D
:10083000012084F8200094F82100012804D000232E
:1008400084F82030022038BD022084F821000020E6
:10085000A0632568286820F0010028602046FFF783
:1008600097FFE36A5BB12268136843F00E031360DD
:100870002268136843F0010313600020E3E7226855
:10088000136823F0040313602268136843F00A031B
:100890001360EDE70220D6E7034690F82120022AF4
:1008A00006D004228263002280F8202001207047B5
:1008B00001680A6822F00E020A6001680A6822F0E4
:1008C00001020A60026CC06B012101FA02F242606F
:1008D00083F82110002083F82000704708B590F8B5
:1008E0002130022B03D004238363012008BD02685A
:1008F000136823F00E0313600268136823F00103EA
:1009000013600368194A934214D0143293421FD0E3
:10091000143293421ED0143293421ED014329342AA
:100920001ED01432934202D04FF0807203E04FF495
:10093000801200E001220E4B5A60012380F8213022
:10094000002380F82030436B6BB198470020CDE73F
:100950001022F0E74FF48072EDE74FF48052EAE79F
:100960004FF48032E7E70020C0E700BF08000240F4
:100970000000024038B5C36B1A6804682568016C32
:1009800004238B40134235D015F0040F32D0236876
:1009900013F0200F03D1236823F0040323600368BE
:1009A000434A934214D01432934218D014329342E3
:1009B00017D01432934217D01432934217D0143206
:1009C000934202D04FF0806203E04FF4800200E0D7
:1009D0000422384B5A60C36A03B1984738BD40229D
:1009E000F7E74FF48062F4E74FF48042F1E74FF409
:1009F0008022EEE702238B4013423CD015F0020F19
:100A000039D0236813F0200F06D1236823F00A039E
:100A10002360012380F821300368254A934214D0D3
:100A2000143293421CD0143293421BD0143293429E
:100A30001BD0143293421BD01432934202D04FF099
:100A4000007203E04FF4001200E00222194B5A60DA
:100A5000002380F82030836A002BBFD09847BDE781
:100A60002022F3E74FF40072F0E74FF40052EDE775
:100A70004FF40032EAE708238B401342AED015F062
:100A8000080FABD0236823F00E032360026CC16B08
:100A9000012303FA02F24A60836380F821300023C5
:100AA00080F82030036B002B98D0984796E700BF62
:100AB000080002400000024070B582B00024A44645
:100AC0009EE07C4DAB4214D00CD8A5F58015AB420E
:100AD0000FD005F57025AB420BD0A5F58015AB42C4
:100AE0001FD106E0744DAB4203D005F58035AB4213
:100AF00017D18B68A3B1012B0DD04261082410E0FF
:100B0000CC680EE0CC6804340BE0CC68083408E014
:100B1000CC680C3405E00261082402E0002400E007
:100B20000424BEF1FF0F37D806464FEA8C02336823
:100B30000F25954023EA050304FA02F213433360BC
:100B40004B6813F0805F59D05C4B9A6942F0010208
:100B50009A619B6903F001030193019B4FEA9C0298
:100B6000951C574B53F825600CF00305AD000F237F
:100B7000AB4026EA0306534B984214D003F580633A
:100B8000984279D003F58063984277D003F580636B
:100B9000984206D0042307E0061DACF1080292003B
:100BA000C5E7032300E00023AB4033430232444D4A
:100BB00045F822304B6813F4801F61D0424A936895
:100BC00043EA0E0393604B6813F4001F5ED03E4A65
:100BD000D36843EA0E03D3604B6813F4003F5BD045
:100BE000394A536843EA0E0353604B6813F4803F5D
:100BF00058D0354A136843EA0E0313600CF1010C18
:100C00000B6833FA0CF253D0012202FA0CF203EA19
:100C1000020E32EA0303F1D14B68122B3FF651AFBB
:100C2000122B3FF67EAF01A555F823F0F30A00081A
:100C3000010B00080B0B00081D0B0008230B00081C
:100C4000230B0008230B0008230B0008230B0008CC
:100C5000230B0008230B0008230B0008230B0008BC
:100C6000230B0008230B0008230B0008230B0008AC
:100C7000050B0008110B0008012395E7022393E7F9
:100C8000114A936823EA0E0393609CE70E4AD368E7
:100C900023EA0E03D3609FE70B4A536823EA0E034F
:100CA0005360A2E7084A136823EA0E031360A5E71E
:100CB00002B070BD00002210000031100010024090
:100CC000000001400008014000040140836819420F
:100CD00001D001207047002070470AB101617047C0
:100CE000090401617047C36801EA030221EA0301B4
:100CF00041EA02410161704708B5054B5B69034257
:100D000000D108BD024B5861FFF7F2FAF9E700BFC6
:100D10000004014082B0084B1B68084AA2FB032371
:100D20005B0A00FB03F3019300BF019B5A1E019273
:100D3000002BF9D102B0704700000020D34D6210A3
:100D4000002800F0F18170B582B00446036813F00A
:100D5000010F2CD0994B5B6803F00C03042B1DD0C2
:100D6000964B5B6803F00C03082B12D06368B3F555
:100D7000803F41D0002B55D103F1804303F504336C
:100D80001A6822F480321A601A6822F480221A60EB
:100D900037E08A4B5B6813F4803FE7D0874B1B68D2
:100DA00013F4003F03D06368002B00F0BF81236879
:100DB00013F0020F75D0814B5B6813F00C0F5FD0FE
:100DC0007E4B5B6803F00C03082B54D02369002B87
:100DD00000F08A807A4B01221A60FFF75BFC05461F
:100DE000764B1B6813F0020F75D1FFF753FC401BC5
:100DF0000228F5D903209EE1704A136843F480333A
:100E00001360636843B3FFF745FC05466B4B1B68F3
:100E100013F4003FCBD1FFF73DFC401B6428F5D90C
:100E2000032088E1B3F5A02F09D0644B1A6822F49F
:100E300080321A601A6822F480221A60E1E703F116
:100E40008043A3F53C331A6842F480221A601A6882
:100E500042F480321A60D4E7FFF71CFC0546574B7A
:100E60001B6813F4003FA2D0FFF714FC401B64285A
:100E7000F5D903205FE1514B5B6813F4803FA5D1A6
:100E80004E4B1B6813F0020F03D02369012B40F077
:100E90004F814A4A136823F0F803616943EAC103AA
:100EA0001360236813F0080F33D0A369002B5CD0C4
:100EB000434B0122C3F88024FFF7ECFB05463F4B70
:100EC0005B6A13F0020F21D1FFF7E4FB401B0228FD
:100ED000F5D903202FE1394A136823F0F80361693B
:100EE00043EAC1031360DCE7354B00221A60FFF7C9
:100EF000D1FB0546314B1B6813F0020FD1D0FFF731
:100F0000C9FB401B0228F5D9032014E10120FFF79B
:100F100001FF236813F0040F00F09680274BDB6974
:100F200013F0805F34D1254BDA6942F08052DA61E8
:100F3000DB6903F080530193019B0125214B1B6862
:100F400013F4807F26D0E368012B3DD0002B53D1D2
:100F500003F1804303F504331A6A22F001021A6296
:100F60001A6A22F004021A6233E0154B0022C3F819
:100F70008024FFF78FFB0546104B5B6A13F0020FCE
:100F8000C7D0FFF787FB401B0228F5D90320D2E02A
:100F90000025D3E70B4A136843F480731360FFF70F
:100FA00079FB0646074B1B6813F4807FCBD1FFF714
:100FB00071FB801B6428F5D90320BCE000100240BF
:100FC00000004242007000405F4A136A43F0010390
:100FD0001362E36833B3FFF75DFB06465A4B1B6AA7
:100FE00013F0020F2FD1FFF755FB801B41F288331E
:100FF0009842F3D903209EE0052B09D0524B1A6A80
:1010000022F001021A621A6A22F004021A62E0E770
:101010004D4B1A6A42F004021A621A6A42F0010247
:101020001A62D6E7FFF736FB0646474B1B6A13F0FA
:10103000020F08D0FFF72EFB801B41F28833984245
:10104000F3D9032077E0E5B9E369002B72D03E4A7B
:10105000526802F00C02082A56D0022B17D03B4BE4
:1010600000221A66FFF716FB0446374B1B6813F085
:10107000007F47D0FFF70EFB001B0228F5D90320A5
:1010800059E0314AD36923F08053D361DCE72F4B19
:1010900000221A66FFF7FEFA05462B4B1B6813F079
:1010A000007F06D0FFF7F6FA401B0228F5D903208F
:1010B00041E0236AB3F5803F1AD023494B6823F4FB
:1010C0007413226A606A024313434B601F4B012270
:1010D0001A66FFF7DFFA04461B4B1B6813F0007F0C
:1010E0000ED1FFF7D7FA001B0228F5D9032022E022
:1010F000154A536823F40033A1680B435360DCE7BF
:10110000002018E0002016E0012B16D00E4B5B6883
:1011100003F48031226A914211D103F47013626AA0
:1011200093420ED1002006E001207047012002E02A
:10113000012000E0002002B070BD0120FBE701208B
:10114000F9E70120F7E700BF00100240000042422B
:101150000F4B5B6803F00C02082A01D00D48704762
:10116000C3F383420C49885C13F4803F0BD0084BD7
:101170005B68C3F34043094AD35C064A02FB00F0B4
:10118000B0FBF3F07047064B03FB00F0704700BF65
:101190000010024000127A00B4380008B03800088D
:1011A00000093D00002800F0A08070B50D460446FF
:1011B000524B1B6803F007038B420BD24F4A136854
:1011C00023F007030B431360136803F007038B42FC
:1011D00040F08D80236813F0020F17D013F0040F36
:1011E00004D0474A536843F4E0635360236813F024
:1011F000080F04D0424A536843F460535360404A96
:10120000536823F0F003A1680B435360236813F085
:10121000010F31D06368012B20D0022B25D0384A32
:10122000126812F0020F64D035494A6822F00302B6
:1012300013434B60FFF72EFA0646314B5B6803F011
:101240000C036268B3EB820F16D0FFF723FA801B02
:1012500041F288339842F0D9032045E0284A1268C9
:1012600012F4003FE0D101203EE0254A126812F05E
:10127000007FD9D1012037E0204B1B6803F0070322
:10128000AB420AD91D4A136823F007032B431360AE
:10129000136803F00703AB422DD1236813F0040F4A
:1012A00006D0174A536823F4E063E1680B435360A8
:1012B000236813F0080F07D0114A536823F46053D2
:1012C000216943EAC1035360FFF742FF0C4B5B689F
:1012D000C3F303130B4AD35CD8400B4B18600B4B82
:1012E0001868FFF793F9002070BD012070470120B6
:1012F000FAE70120F8E70120F6E700BF00200240EE
:1013000000100240A0380008000000200800002063
:10131000014B1868704700BF0000002008B5FFF7B8
:10132000F7FF044B5B68C3F30223034AD35CD84046
:1013300008BD00BF001002409838000808B5FFF74C
:10134000E7FF044B5B68C3F3C223034AD35CD84076
:1013500008BD00BF0010024098380008026802F182
:101360000C0353E8003F23F0C0030C3242E8003185
:101370000029F3D1202380F841307047026802F140
:101380000C0353E8003F23F490730C3242E8003121
:101390000029F3D1026802F1140353E8003F23F05F
:1013A0000103143242E800310029F3D1036B012B11
:1013B00005D0202380F84230002303637047026881
:1013C00002F10C0353E8003F23F010030C3242E813
:1013D00000310029F3D1ECE790F84130212B01D006
:1013E000022070478368B3F5805F17D0036A5A1CE8
:1013F00002621A7803685A60C38C9BB2013B9BB2AD
:10140000C3844BB90268D36823F08003D3600268B9
:10141000D36843F04003D360002070470369002B7A
:10142000E4D1036A1B880268C3F308035360036AAC
:1014300002330362E0E7000010B504460268136956
:1014400023F44053C1680B4313618368026913435B
:1014500042691A430168CB6823F4B05323F00C03AC
:101460001343CB600268536923F4407381690B43D3
:1014700053610268134B9A4220D0FFF74FFF024698
:1014800002EB820202EB820263689B00B2FBF3F282
:101490000D48A0FB02314909642303FB11231B0102
:1014A0003233A0FB03035B0903F0F00202EB0112ED
:1014B00003F00F03216813448B6010BDFFF73EFF5C
:1014C0000246DDE7003801401F85EB5160B310B5DF
:1014D000044690F8413013B3242384F84130226845
:1014E000D36823F40053D3602046FFF7A5FF22689A
:1014F000136923F4904313612268536923F02A038C
:1015000053612268D36843F40053D36000206064C1
:10151000202384F8413084F84230606310BD80F8A5
:101520004030FEF7A5FFD7E70120704738B590F8A7
:101530004130202B30D1044600292FD00AB9012098
:1015400038BD01628284C28400234364212084F870
:101550004100A06B124D8562A06B124DC562A06B5D
:10156000114D0563A06B436320681346021DA06BF9
:10157000FFF758F923686FF040021A60226802F101
:10158000140353E8003F43F08003143242E8003173
:101590000029F3D10020D3E70220D1E70120CFE7D3
:1015A000AF1500081716000827160008704708B581
:1015B0000346406A1B681B6813F0200F1AD10023F2
:1015C000C384026802F1140353E8003F23F0800350
:1015D000143242E800310029F3D1026802F10C0311
:1015E00053E8003F43F040030C3242E80031002949
:1015F000F3D108BDFFF7DAFFFBE708B50168CA6859
:1016000022F04002CA60202280F84120FFF7CEFF7E
:10161000002008BD704708B5406AFFF7FBFF08BD12
:1016200070477047704710B5446A23685B6994F847
:101630004120212A0FD023685B6903F0400394F80E
:101640004220222A11D0636C43F0100363642046C9
:10165000FFF7E8FF10BD03F08003002BEBD0002361
:10166000E3842046FFF77AFEE5E7002BEBD000236A
:10167000E3852046FFF782FEE5E708B5406A0023D0
:10168000C385C384FFF7CEFF08BD90F84230222BFC
:1016900069D18368B3F5805F4FD0826AB3F5805F0C
:1016A00004D0002B56D10369002B53D103685B682B
:1016B0001370836A01338362C38D9BB2013B9BB27B
:1016C000C385002B51D100B583B00268D36823F0E5
:1016D0002003D3600268D36823F48073D360026868
:1016E000536923F001035361202380F84230002323
:1016F0004363036B012B33D100230363026802F1C0
:101700000C0353E8003F23F010030C3242E8003191
:101710000029F3D103681A6812F0100F06D00022D6
:1017200001921A6801925B680193019B818DFEF71B
:10173000C9FD002003B05DF804FB0269002AACD1AA
:10174000826A03685B68C3F308031380836A023309
:101750008362B1E703685B6803F07F031370A8E757
:10176000FFF75EFFE5E702207047002070470000AA
:1017700010B582B0044602681368D068516913F04E
:101780000F0F09D113F0200F0CD010F0200F09D04B
:101790002046FFF77AFF16E011F0010115D110F491
:1017A000907F12D1216B012979D013F0800F03D0E3
:1017B00010F0800F40F0138113F0400F03D010F0B1
:1017C000400F40F0108102B010BD13F0010F06D0A1
:1017D00010F4807F03D0626C42F00102626413F067
:1017E000040F04D019B1626C42F00202626413F07B
:1017F000020F04D019B1626C42F00402626413F06B
:10180000080F07D010F0200F00D119B1626C42F020
:1018100008026264626C002AD5D013F0200F02D057
:1018200010F0200F29D123685B6903F04003626C3C
:1018300012F0080F00D163B32046FFF79FFD236825
:101840005B6913F0400F20D0226802F1140353E8C3
:10185000003F23F04003143242E800310029F3D165
:10186000E36B73B1624A5A63E06BFFF737F8002805
:10187000A9D0E06B436B9847A5E72046FFF705FF2B
:10188000D1E72046FFF7CEFE9DE72046FFF7CAFED0
:1018900099E72046FFF7C6FE0023636493E713F041
:1018A000100F82D010F0100F3FF47FAF0023019390
:1018B0001368019353680193019B536913F0400F20
:1018C00051D0E26B13685B689BB2002B3FF47BAF97
:1018D000A18D99427FF677AFE3859369202B37D0AE
:1018E000226802F10C0353E8003F23F480730C32AA
:1018F00042E800310029F3D1226802F1140353E8D1
:10190000003F23F00103143242E800310029F3D1F3
:10191000226802F1140353E8003F23F0400314321D
:1019200042E800310029F3D1202384F8423000231B
:101930002363226802F10C0353E8003F23F01003F5
:101940000C3242E800310029F3D1E06BFEF7A4FF2E
:1019500002236363A18DE38D9BB2C91A89B220462D
:10196000FEF7B0FC2FE7A18DE38D9BB2C91A89B2B7
:10197000E38D9BB2002B3FF426AF00293FF423AF49
:10198000226802F10C0353E8003F23F490730C32F9
:1019900042E800300028F3D1226802F1140353E832
:1019A000003F23F00103143242E800300028F3D155
:1019B000202384F8423000232363226802F10C03C1
:1019C00053E8003F23F010030C3242E800300028B7
:1019D000F3D1022363632046FEF774FCF3E620464E
:1019E000FFF7FAFCEFE62046FFF707FEEBE600BF45
:1019F0007B16000808B5406A01234363036B012B83
:101A000002D0FFF70EFE08BD818D4908FEF75AFC93
:101A1000F9E708B50346406A1B681B6813F0200FFE
:101A20002BD10023C385026802F10C0353E8003F69
:101A300023F480730C3242E800310029F3D10268AC
:101A400002F1140353E8003F23F00103143242E88B
:101A500000310029F3D1026802F1140353E8003F7A
:101A600023F04003143242E800310029F3D120234F
:101A700080F84230036B012B07D000234363036BD4
:101A8000012B0FD0FFF7CCFD08BD026802F10C035B
:101A900053E8003F23F010030C3242E800310029E4
:101AA000F3D1EAE7818DFEF70DFCEDE730B583B0A9
:101AB000044613468162828500254564222280F80F
:101AC0004220C26B1F489062E26B1F48D062E26BFB
:101AD0001E481063E26B556320680A46011DE06BE7
:101AE000FEF7A0FE019523681A6801925B680193D6
:101AF000019B23695BB1226802F10C0353E8003FAC
:101B000043F480730C3242E800310029F3D122689B
:101B100002F1140353E8003F43F00103143242E89A
:101B200000310029F3D1226802F1140353E8003F89
:101B300043F04003143242E800310029F3D1002081
:101B400003B030BD131A0008F51900082716000865
:101B500090F84230202B27D110B582B0044629B32B
:101B600012B9012002B010BD0123036300234363B7
:101B7000FFF79CFF236B012B01D00120F2E700232C
:101B8000019323681A6801925B680193019B2268A4
:101B900002F10C0353E8003F43F010030C3242E81B
:101BA00000310029F3D1DDE7022070470120D9E799
:101BB000EFF305832BB9064B186828B901221A6088
:101BC00070476FF0050070474FF0FF30704700BF5F
:101BD000D0070020EFF3058373B90A4B1B68012B74
:101BE0000DD110B50024084BDC77064B02221A6099
:101BF00001F0ACF8204610BD6FF0050070474FF0C3
:101C0000FF307047D007002000ED00E0F0B587B04E
:101C100000240594EFF3058404BBF8B1002A34D006
:101C2000156893692BB11E46013B372B02D9002062
:101C300015E01826536813F0010F3FD1546984B1A1
:101C40004FEA940C93682BB1D7685B2F02D91769C0
:101C500007B184B943B14FF0FF330BB3059807B018
:101C6000F0BD4FF0800CEDE7D368A3B91369ABB1B9
:101C70004FF0FF33F1E70293019700960B4662465F
:101C8000294600F0F5FF0590E8E7154600231826E1
:101C90004FF0800CE1E74FF0FF33DEE70023DCE795
:101CA00005AB019300960B461FFA8CF2294601F012
:101CB0001AF80128D2D000230593CFE70020CEE701
:101CC00008B5EFF3058333B908B9002008BD01F06A
:101CD0009FF90020FAE76FF00500F7E7034B036078
:101CE000034B0B6080231360704700BF7407002014
:101CF00074050020034B0360034B0B604FF48073AB
:101D000013607047180500201801002000F1080337
:101D100043604FF0FF328260C360036100230360C1
:101D2000704700230361704743684B609A688A607C
:101D3000516099600861036801330360704730B4F3
:101D40000D68B5F1FF3F11D000F108031C465B6838
:101D50001A68AA42FAD963684B6099608C60616026
:101D6000086103680133036030BC70470469F2E71F
:101D70000369416882688A60416851605A6882429A
:101D800006D0002202611A68013A1A60186870478A
:101D900082685A60F5E7000082B0002301930D4B82
:101DA0001B68B3F1FF3F08D04FF0500383F3118855
:101DB000BFF36F8FBFF34F8FFEE74FF0500383F3F6
:101DC0001188BFF36F8FBFF34F8F019B002BFCD0A7
:101DD00002B070470C00002006480068006880F3DD
:101DE000088862B661B6BFF34F8FBFF36F8F00DF15
:101DF00000BF000008ED00E04FF0807340F8043CA5
:101E000021F0010140F8081C034B40F80C3C40F85D
:101E1000202C4038704700BF991D000800000000CA
:101E2000074B19680868B0E8F00F80F30988BFF322
:101E30006F8F4FF0000080F311884EF00D0E704749
:101E4000381900204FF0500383F31188BFF36F8FD0
:101E5000BFF34F8F0B4A136801331360012B00D07F
:101E600070474FF0E023D3F8043D13F0FF0FF7D095
:101E70004FF0500383F31188BFF36F8FBFF34F8F81
:101E8000FEE700BF0C000020094B1B6843B94FF070
:101E9000500383F31188BFF36F8FBFF34F8FFEE7BB
:101EA000013B034A13600BB983F31188704700BFED
:101EB0000C000020000000000000000000000000F6
:101EC000EFF30980BFF36F8F0D4B1A6820E9F00F15
:101ED000106008B54FF0500080F3118801F0BEF893
:101EE0004FF0000080F31188BDE8084019680868C9
:101EF000B0E8F00F80F30988BFF36F8F704700BF21
:101F00003819002008B54FF0500383F31188BFF350
:101F10006F8FBFF34F8F00F073FF28B14FF0E023B6
:101F20004FF08052C3F8042D002383F3118808BDBD
:101F30004FF0E022002313619361054B1B680549B4
:101F4000A1FB03139B09013B5361072313617047F6
:101F500000000020D34D621010B582B02A4B1A78D1
:101F6000D2B20192FF221A701B78DBB28DF80330D7
:101F70009DF8033003F05003244A1370244B0722CA
:101F80001A6009E0224A1368013B13609DF8033090
:101F90005B00DBB28DF803309DF8033013F0800F47
:101FA000F0D11B4B1B68032B08D04FF0500383F379
:101FB0001188BFF36F8FBFF34F8FFEE71B02144AE8
:101FC000136003F4E0631360019BDBB20E4A1370ED
:101FD0004FF0E023D3F8202D42F47002C3F8202DF7
:101FE000D3F8202D42F07042C3F8202DFFF7A0FF58
:101FF0000024084B1C60FFF7EFFE01F02FF8FFF7FD
:10200000CBFE204602B010BD00E400E0D80700205F
:10201000D40700200C000020EFF305830F2B0ED90E
:10202000114A9A5C114B1B789A4208D24FF0500328
:1020300083F31188BFF36F8FBFF34F8FFEE74FF02D
:10204000E023D3F80C3D03F4E063094A126893429D
:1020500008D94FF0500383F31188BFF36F8FBFF39C
:102060004F8FFEE7704700BFF0E300E0D807002085
:10207000D4070020124A12F0070F1ED0D11D21F004
:102080000701C1F5406313440A460E48026000216F
:1020900041601344083B23F007030B480360596079
:1020A0001960991A51601360084B1960084B196048
:1020B000084B4FF000421A6070474FF44063E4E76A
:1020C000FC070020F4070020F0070020E8070020AC
:1020D000EC070020DC070020154B1A461B688342E2
:1020E000FBD3516802EB010C844509D0416800EB39
:1020F000010C634509D00360904218D0106070470E
:102100004068014451601046F0E710B4094C24685F
:10211000A3420AD05B681944416013681B680360DE
:10212000904200D0106010BC70470460F8E7704720
:10213000F4070020F007002038B5044600F052FEF6
:10214000384B1B68B3B1384B1B681C4250D1002C74
:1021500050D004F1080214F0070F02D022F0070259
:102160000832002A55D0314B1B68934253D3304973
:102170000C6804E0FFF77EFFE5E721461C46636834
:10218000934202D22368002BF7D1264B1B68A3424F
:1021900043D00D68083523680B6063689B1A102BC9
:1021A00010D9A01810F0070F08D04FF0500383F398
:1021B0001188BFF36F8FBFF34F8FFEE743606260FC
:1021C000FFF78AFF626819490B689B1A0B6019496F
:1021D00009688B4201D217490B60134B1B681343EC
:1021E000636000232360144A13680133136002E024
:1021F000002500E0002500F08FFE15F0070F0ED03F
:102200004FF0500383F31188BFF36F8FBFF34F8FED
:10221000FEE70025EFE70025EDE70025EBE7284680
:1022200038BD00BFF0070020DC070020EC070020CD
:10223000F4070020E8070020E4070020002834D03D
:1022400038B50446A0F1080550F8043C174A126856
:10225000134208D14FF0500383F31188BFF36F8FFF
:10226000BFF34F8FFEE750F8081C41B14FF0500309
:1022700083F31188BFF36F8FBFF34F8FFEE723EA1D
:10228000020340F8043C00F0ADFD54F8041C084A79
:1022900013680B4413602846FFF71EFF054A1368B6
:1022A0000133136000F038FE38BD7047DC070020B2
:1022B000EC070020E007002010B50446FFF7C2FD40
:1022C000A26BE36B9A4204D00024FFF7DDFD2046A9
:1022D00010BD0124F9E710B50446FFF7B3FDA36B69
:1022E00023B90124FFF7D0FD204610BD0024F9E7F3
:1022F00070B504461546866B026C5AB903681BB16B
:1023000000200136A66370BD806800F0D3FF002373
:10231000A360F6E76DB9406801F06AFA6368226C61
:1023200013446360A268934219D32368636028460C
:10233000E7E7C06801F05CFAE368226C51429B1A3F
:10234000E3602268934202D2A3680B44E360022D4B
:1023500001D00020D5E726B1013E0020D1E7284674
:10236000CFE70020CDE708B50346026C62B108460E
:10237000D9681144D960D3F808C0614501D3196800
:10238000D960D96801F034FA08BD38B50546FFF7C1
:1023900059FD95F8454064B201E0013C64B2002C5F
:1023A0000ADD6B6A43B105F1240000F0D7FE002876
:1023B000F3D000F069FFF0E7FF2385F84530FFF721
:1023C00063FDFFF73FFD95F8444064B201E0013C36
:1023D00064B2002C0ADD2B6943B105F1100000F056
:1023E000BDFE0028F3D000F04FFFF0E7FF2385F893
:1023F0004430FFF749FD38BD38B5E0B10D4604461D
:10240000FFF720FD2368E26B216C01FB0230A06026
:102410000020A0636360013A02FB0133E360FF2305
:1024200084F8443084F84530FDB9236963B9FFF777
:102430002BFD012038BD4FF0500383F31188BFF30B
:102440006F8FBFF34F8FFEE704F1100000F086FEA0
:102450000028ECD04FF0E0234FF08052C3F8042D59
:10246000BFF34F8FBFF36F8FE1E704F11000FFF769
:102470004DFC04F12400FFF749FCD8E738B51D46B0
:10248000049C0B4649B92460E06323640121204683
:10249000FFF7B2FF84F84C5038BD2260F4E740B932
:1024A0004FF0500383F31188BFF36F8FBFF34F8F4B
:1024B000FEE710B584B01C46844653B192B189B989
:1024C0004FF0500383F31188BFF36F8FBFF34F8F2B
:1024D000FEE74FF0500383F31188BFF36F8FBFF314
:1024E0004F8FFEE76AB150230393039B502B13D009
:1024F0004FF0500383F31188BFF36F8FBFF34F8FFB
:10250000FEE70029EFD04FF0500383F31188BFF3AB
:102510006F8FBFF34F8FFEE7039B012384F8463094
:1025200000949DF818306046FFF7A8FF204604B0DD
:1025300010BDF0B585B0019288B10F461D46044626
:10254000B1B1022D20D1E36B012B1DD04FF0500310
:1025500083F31188BFF36F8FBFF34F8FFEE74FF008
:10256000500383F31188BFF36F8FBFF34F8FFEE7E4
:10257000036C002BE5D04FF0500383F31188BFF3B9
:102580006F8FBFF34F8FFEE700F084FE064658B909
:10259000019B002B48D04FF0500383F31188BFF309
:1025A0006F8FBFF34F8FFEE700263DE02A46394686
:1025B0002046FFF79DFE636A7BB948B14FF0E023E8
:1025C0004FF08052C3F8042DBFF34F8FBFF36F8FCE
:1025D000FFF75AFC012005B0F0BD04F1240000F023
:1025E000BDFD0028F4D04FF0E0234FF08052C3F837
:1025F000042DBFF34F8FBFF36F8FE9E7FFF744FC64
:102600000020E8E702A800F0EFFD012619E0002312
:1026100084F8443021E0002384F8453023E020464C
:10262000FFF7B3FE00F078FCFFF70CFCA26BE36B46
:102630009A42BBD3022DB9D0019B002BDED0002ED5
:10264000E0D0FFF721FC00F0CDFBFFF7FBFB94F897
:10265000442052B2B2F1FF3FD9D094F8452052B293
:10266000B2F1FF3FD7D0FFF70FFC01A902A800F09D
:10267000C7FDD8B92046FFF71FFE0028CFD001992B
:1026800004F1100000F036FD2046FFF77EFE00F05A
:1026900043FC0028C8D14FF0E0234FF08052C3F82C
:1026A000042DBFF34F8FBFF36F8FBDE72046FFF7B9
:1026B0006CFE00F031FC00208DE72DE9F84390B16D
:1026C0000F4616461C460546B1B1022C20D1EB6BD5
:1026D000012B1DD04FF0500383F31188BFF36F8F90
:1026E000BFF34F8FFEE74FF0500383F31188BFF322
:1026F0006F8FBFF34F8FFEE7036C002BE5D04FF0D9
:10270000500383F31188BFF36F8FBFF34F8FFEE742
:10271000FFF782FCEFF311884FF0500383F3118829
:10272000BFF36F8FBFF34F8FAA6BEB6B9A4206D349
:10273000022C04D0002088F31188BDE8F88395F8B6
:1027400045904FFA89F9AB6B224639462846FFF788
:10275000CFFDB9F1FF3F06D009F101035BB285F867
:1027600045300120E7E76B6A0BB90120E3E705F18B
:10277000240000F0F3FC18B126B101203060DAE744
:102780000120D8E70120D6E7F0B585B0019290B1DD
:102790000F460446C1B100F07DFD064600BB019B1B
:1027A000002B5ED04FF0500383F31188BFF36F8F7F
:1027B000BFF34F8FFEE74FF0500383F31188BFF351
:1027C0006F8FBFF34F8FFEE7036C002BE3D04FF00A
:1027D000500383F31188BFF36F8FBFF34F8FFEE772
:1027E00000263EE039462046FFF7BDFD013DA563CA
:1027F000236923B9FFF748FB012005B0F0BD04F1C0
:10280000100000F0ABFC0028F4D04FF0E0234FF0B4
:102810008052C3F8042DBFF34F8FBFF36F8FE9E7EA
:10282000FFF732FB0020E8E702A800F0DDFC0126FC
:1028300021E0002384F8443029E0002384F8453067
:102840002BE02046FFF7A1FD00F066FB09E02046E3
:10285000FFF79BFD00F060FB2046FFF73CFD0028E2
:102860003FD1FFF7EFFAA56B002DBBD1019B002BE9
:10287000D6D0002ED8D0FFF707FB00F0B3FAFFF751
:10288000E1FA94F844305BB2B3F1FF3FD1D094F851
:1028900045305BB2B3F1FF3FCFD0FFF7F5FA01A9A6
:1028A00002A800F0ADFC0028D1D12046FFF713FDAF
:1028B0000028C6D0019904F1240000F01BFC20463A
:1028C000FFF763FD00F028FB0028CAD14FF0E0239A
:1028D0004FF08052C3F8042DBFF34F8FBFF36F8FBB
:1028E000BFE7002089E700000023072B0CD8074A28
:1028F00052F833200AB10133F7E7044A42F83310A3
:1029000002EBC30250607047704700BFFC13002009
:1029100070B504460D461646FFF794FA94F8443015
:102920005BB2B3F1FF3F0DD094F845305BB2B3F129
:10293000FF3F0BD0FFF7A8FAA36B5BB12046FFF770
:1029400024FD70BD002384F84430EDE7002384F8B3
:102950004530EFE73246294604F1240000F0E2FB5F
:10296000ECE70000084B1B681B6823B9074B4FF0CE
:10297000FF321A607047044B1B68DB68DB685A68DB
:10298000024B1A60704700BFAC14002044140020B2
:102990002DE9F04780460D4617469946089EDDF81A
:1029A00024A00A9C9200A521206B00F0F4FE236B6A
:1029B00007F18042013A03EB820727F00707A5B32E
:1029C0004FF0000CBCF10F0F09D815F80C3004EBD8
:1029D0000C0282F8343013B10CF1010CF2E7002341
:1029E00084F84330372E00D93726E662E6640025A6
:1029F0002565201DFFF795F904F11800FFF791F9FF
:102A00002461C6F13806A6616462656584F8585091
:102A10004A4641463846FFF7EFF92060BAF1000F09
:102A200001D0CAF80040BDE8F087002384F83430B4
:102A3000D8E7000038B5002407E004EB84029300D7
:102A40000E481844FFF762F90134372CF5D90C4DC4
:102A50002846FFF75BF90B4C2046FFF757F90A4869
:102A6000FFF754F90948FFF751F90948FFF74EF904
:102A7000084B1D60084B1C6038BD00BFD8140020F7
:102A8000C4140020B01400209414002080140020EE
:102A900068140020AC140020A814002010B50446CF
:102AA000FFF7D0F9224A136801331360214B1B68EA
:102AB0005BB1214B1B686BB91E4B1B68DA6AE36A7A
:102AC0009A4207D81B4B1C6004E01A4B1C60136829
:102AD000012B29D0194A1368013313606364E06A3B
:102AE000174B1B68984201D9154B186000EB80000A
:102AF000211D144B03EB8000FFF716F9FFF7C4F913
:102B00000D4B1B687BB10B4B1B68DA6AE36A9A4278
:102B100009D24FF0E0234FF08052C3F8042DBFF3E9
:102B20004F8FBFF36F8F10BDFFF784FFD2E700BF59
:102B30006414002038190020581400204814002084
:102B40005C140020D814002010B5044690F85930C9
:102B500063B1012B11D0022B0ED04FF0500383F341
:102B60001188BFF36F8FBFF34F8FFEE7006BFFF746
:102B700065FB2046FFF762FB10BDFFF75FFBFBE73D
:102B80000F4B1B68D3B110B5FFF75CF90D4BDB6839
:102B9000DC68201DFFF7ECF80B4A1368013B13605B
:102BA000074A1368013B1360FFF76EF92046FFF7F1
:102BB000CBFF034B1B68002BE6D110BD704700BF55
:102BC0007C140020801400206414002008B5FFF756
:102BD000D7FF074B1B68012BF9D94FF0E0234FF0CB
:102BE0008052C3F8042DBFF34F8FBFF36F8FEEE712
:102BF000D814002070B504460D46174B1E68174BBD
:102C000018680430FFF7B4F8B4F1FF3F0DD0344436
:102C1000124B1B685C60A64210D9114B18680F4B11
:102C200019680431FFF78BF870BD002DEFD00B4B06
:102C3000196804310B48FFF777F8F5E70A4B186875
:102C4000064B19680431FFF77AF8084B1B68A3425A
:102C5000EAD9064B1C60E7E7601400203819002011
:102C6000A814002068140020AC1400204414002094
:102C700030B587B00B9C7CB10C9DB5B15C2504953B
:102C8000049D5C2D1AD04FF0500383F31188BFF3DD
:102C90006F8FBFF34F8FFEE74FF0500383F3118820
:102CA000BFF36F8FBFF34F8FFEE74FF0500383F3F7
:102CB0001188BFF36F8FBFF34F8FFEE7049D0C9D0C
:102CC0002C63022485F8594000240394029505AC36
:102CD00001940A9C0094FFF75BFE0C98FFF7DEFE60
:102CE000059807B030BD2DE9F04385B0074688460A
:102CF00014461E469000FFF71FFA08B381465C2079
:102D0000FFF71AFA0546A8B1C0F83090002380F802
:102D10005930039302900D9B01930C9B0093334613
:102D2000224641463846FFF733FE2846FFF7B6FEF7
:102D3000012007E04846FFF781FA4FF0FF3001E03D
:102D40004FF0FF3005B0BDE8F083000010B588B04B
:102D500000240594069407AA06A905A8FEF7BEFF5D
:102D6000059B0293069B019300942346079A1749FB
:102D70001748FFF77DFF174B1860C0B100F04EFBFE
:102D8000012815D14FF0500383F31188BFF36F8FE3
:102D9000BFF34F8F104B4FF0FF321A600F4B0122E1
:102DA0001A600F4B00221A60FFF7D6F803E00020EC
:102DB000B0F1FF3F01D008B010BD4FF0500383F3D6
:102DC0001188BFF36F8FBFF34F8FFEE738380008CD
:102DD000CD2B00084014002044140020581400207B
:102DE00060140020024A136801331360704700BF6B
:102DF0003C140020014B1868704700BF601400208D
:102E0000F8B53A4B1B68002B69D1394B1D68013569
:102E10001D60C5B9374B1B681B6843B14FF05003A9
:102E200083F31188BFF36F8FBFF34F8FFEE7314AF3
:102E30001168314B186810601960304A136801330B
:102E40001360FFF78FFD2E4B1B68AB423DD9002767
:102E50002C4B1B68DB6A03EB83039A002A4B9B58BD
:102E6000012B00D90127294B1B68002B3CD00127DF
:102E70003AE001271F4B1B681B6843B31D4B1B68BF
:102E8000DB68DC6863689D4226D3261D3046FEF76A
:102E90006FFFA36A1BB104F11800FEF769FFE36A34
:102EA0001B4A1268934201D9194A136003EB83034A
:102EB0009A00314614481044FEF736FFE26A114B7F
:102EC0001B68DB6A9A42D4D2D4E70027D2E70C4BC6
:102ED0004FF0FF321A60BBE7094A1360B8E70D4AAA
:102EE00013680133136000273846F8BD3C140020F6
:102EF00060140020AC140020A81400204C14002002
:102F00004414002038190020D81400205014002048
:102F10005C1400205414002038B5354B1B6843B9AD
:102F20004FF0500383F31188BFF36F8FBFF34F8FC0
:102F3000FEE7FEF787FF2E4B1A68013A1A601B68FE
:102F4000002B4FD12B4B1B680BB900244BE0002406
:102F5000294B1B681BB3284BDB68DC6804F11800A5
:102F6000FEF706FF251D2846FEF702FFE06A234B09
:102F70001B68984201D9214B186000EB800029465C
:102F80001F4B03EB8000FEF7CFFEE26A1D4B1B6870
:102F9000DB6A9A42DCD31C4B01221A60D8E70CB1E1
:102FA000FFF7E0FC194B1C6884B9174B1C68D4B1BF
:102FB0004FF0E0234FF08052C3F8042DBFF34F8F42
:102FC000BFF36F8F01240EE0013C07D0FFF718FF1D
:102FD0000028F9D00C4B01221A60F5E70B4B0022B8
:102FE0001A60E2E70024FEF74FFF204638BD00BF1D
:102FF0003C14002064140020941400205C14002071
:10300000D814002038190020501400205414002037
:1030100010B5A8B10446104B1B6843B14FF05003E4
:1030200083F31188BFF36F8FBFF34F8FFEE7FFF776
:10303000D9FE00212046FFF7DDFDFFF76DFF48B9FF
:103040004FF0E0234FF08052C3F8042DBFF34F8FB1
:10305000BFF36F8F10BD00BF3C140020204B1B68D6
:103060001BB1204B01221A6070471E4B00221A60D0
:103070001D4B1B6803EB83018A001C498A585AB90F
:103080000BB1013BF6E74FF0500383F31188BFF318
:103090006F8FBFF34F8FFEE7084603EB83018A0073
:1030A000024451684968516003EB830C4FEA8C027B
:1030B0000832024491420BD003EB830291000B4A89
:1030C0000A445268D1680A4A1160074A136070477F
:1030D000486862469100054A0A445060ECE700BF28
:1030E0003C140020501400205C140020D814002050
:1030F0003819002058B110B50C46094A116818312A
:10310000FEF71DFE01212046FFF774FD10BD4FF0B4
:10311000500383F31188BFF36F8FBFF34F8FFEE728
:103120003819002038B570B10D4614460A4A1168A6
:103130001831FEF7F9FD0CB14FF0FF352146284656
:10314000FFF758FD38BD4FF0500383F31188BFF3EC
:103150006F8FBFF34F8FFEE73819002038B5C36873
:10316000DC6824B304F118052846FEF701FE184B6D
:103170001B682BBB251D2846FEF7FAFDE06A154BA0
:103180001B68984201D9134B186000EB8000294658
:10319000114B03EB8000FEF7C7FDE26A0F4B1B6883
:1031A000DB6A9A4211D901200D4B186038BD4FF0EF
:1031B000500383F31188BFF36F8FBFF34F8FFEE788
:1031C00029460848FEF7B0FDE7E70020EEE700BF1C
:1031D0003C1400205C140020D81400203819002072
:1031E0005014002094140020034B1B680360034B11
:1031F0001B684360704700BF4C140020601400201F
:1032000038B5E0B10C46054611B3FEF71BFE1C4B6A
:1032100019686B68C81A2268B2F1FF3F29D0DFF83D
:1032200064C0DCF800C0D5F800E0E64501D08B4270
:1032300024D9824215D80023236001241AE04FF0DC
:10324000500383F31188BFF36F8FBFF34F8FFEE7F7
:103250004FF0500383F31188BFF36F8FBFF34F8F8D
:10326000FEE75B1A134423602846FFF7BDFF0024E6
:1032700000E00024FEF708FE204638BD0124F9E7EF
:10328000601400204C140020014B01221A6070478A
:1032900050140020054B1B6833B1054B1B680BB164
:1032A000002070470220704701207047581400200A
:1032B0003C14002000283BD038B504461E4B1B6848
:1032C000834208D04FF0500383F31188BFF36F8F10
:1032D000BFF34F8FFEE7036D43B94FF0500383F305
:1032E0001188BFF36F8FBFF34F8FFEE7013B03657C
:1032F000C16AC26C91421DD00BB1002038BD051DC2
:103300002846FEF735FDE06CE062C0F13803A361AA
:103310000A4B1B68984201D9084B186000EB8000EB
:103320002946074B03EB8000FEF7FEFC0120E5E792
:10333000002070470020E1E7381900205C140020CD
:10334000D8140020064B1A6813682BB901230360B8
:1033500023B9D368186870470023F8E70020704746
:103360003C1A002008B54160006191420CD8D21A85
:1033700083699A4201D3012008BD011D094B1868D9
:10338000FEF7DDFC0020F7E79A4201D2994206D20F
:10339000011D054B1868FEF7D2FC0020ECE7012068
:1033A000EAE700BF381A00203C1A002030B583B08D
:1033B000FEF748FD114B1B681BB1FEF765FD03B01E
:1033C00030BD0F4D2846FEF7A1FC0E4C2046FEF7FF
:1033D0009DFC0D4B1D600D4B1C60002300930C4B9E
:1033E0000C4A10210A20FFF75AF8044B18600028F5
:1033F000E3D00949FFF778FADFE700BF341A00206D
:10340000541A0020401A00203C1A0020381A0020CC
:103410003C1900208C1900204038000810B588B0F5
:10342000FFF7C4FF124B1B68CBB100240594069430
:1034300007AA06A905A8FEF75DFC059B0293069B5B
:103440000193022300932346079A0A490A48FFF78B
:103450000FFC0A4B186010B1012008B010BD4FF0EE
:10346000500383F31188BFF36F8FBFF34F8FFEE7D5
:10347000341A00204838000881370008301A00202C
:10348000B8B19C4603461848006858B300B585B0EB
:1034900000910192029305291CDCFFF7FBFE022834
:1034A00010D000231A4669460F480068FFF741F81C
:1034B00015E04FF0500383F31188BFF36F8FBFF314
:1034C0004F8FFEE70023069A694607480068FFF71A
:1034D00030F804E0002362466946FFF7EEF805B0D5
:1034E0005DF804FB00207047341A002070B582B0EC
:1034F0001B4B1B681A6862B3DB681E68DC68251DFD
:103500002846FEF735FC236A2046984794F8283071
:1035100013F0040FECD0A36933449E4207D26360DA
:10352000246129460E4B1868FEF709FCE0E70021EC
:1035300000910B4632462046FFF7A2FF0028D7D164
:103540004FF0500383F31188BFF36F8FBFF34F8F9A
:10355000FEE7044A106802490860136002B070BDBB
:103560003C1A0020381A002038B50546FFF742FC07
:103570000446074B1B68834205D800232B60044B8D
:103580001C60204638BDFFF7B1FF01232B60F6E732
:103590002C1A002070B582B006460D4617490968FE
:1035A000C968CC68201DFEF7E3FB94F828C01CF026
:1035B000040F08D12CF0010C84F828C0236A20469F
:1035C000984702B070BDA16933462A46314420466F
:1035D000FFF7C8FE0028F1D0002100910B463246CB
:1035E0002046FFF74DFF0028E8D14FF0500383F34A
:1035F0001188BFF36F8FBFF34F8FFEE73C1A002097
:1036000070B582B006460C46FFF7ECFB01A8FFF749
:10361000ABFF019B33BB0546E4B9B04213D222464F
:10362000711B124B1868FFF773F9FFF775FCD8B9D7
:103630004FF0E0234FF08052C3F8042DBFF34F8FBB
:10364000BFF36F8F10E0FFF767FC29463046FFF7A6
:10365000A1FF09E0064A126812680AB90124DEE7F0
:103660001C46DCE7FFF758FC02B070BD341A00209E
:10367000381A002010B588B002E0049B002B0FDA46
:10368000002204A93D4B1868FFF77EF8002872D08D
:10369000049B002BF1DA07990698059B9847ECE705
:1036A000069C636913B1201DFEF762FB03A8FFF7B8
:1036B0005BFF0246049B092BE2D8DFE803F0050517
:1036C000052F364E05052F3694F8283043F00103B8
:1036D00084F82830059BA16919442046FFF742FE73
:1036E0000028CDD0236A2046984794F8283013F05C
:1036F000040FC5D0A269002100910B460598024431
:103700002046FFF7BDFE0028BAD14FF0500383F3E7
:103710001188BFF36F8FBFF34F8FFEE794F8283007
:1037200023F0010384F82830AAE794F8283043F006
:10373000010384F828300599A16129B103460144A9
:103740002046FFF70FFE9BE74FF0500383F31188ED
:10375000BFF36F8FBFF34F8FFEE794F8283013F05D
:10376000020F04D023F0010384F8283088E72046B4
:10377000FEF764FD84E708B010BD00BF341A0020D6
:1037800000B583B001A8FFF7DDFD0199FFF738FF11
:10379000FFF770FFF6E703460244934200D17047FB
:1037A00003F8011BF9E7000070B500260C4D0D4B26
:1037B0005B1B9C10A64209D1002600F027F80A4D99
:1037C0000A4B5B1B9C10A64205D170BD55F8043B0B
:1037D00098470136EEE755F8043B98470136F2E783
:1037E000C4380008C4380008C4380008C8380008C5
:1037F0000A44914200F1FF3300D1704710B511F82F
:10380000014B914203F8014FF9D110BDF8B500BF4B
:10381000F8BC08BC9E467047F8B500BFF8BC08BCB1
:043820009E46704709
:10382400556172745461736B000000004C4544543C
:1038340061736B0049444C4500000000546D7251A3
:1038440000000000546D7220537663002438000891
:103854000000000000000000000000000000000064
:10386400000200000800000000000000000000004A
:1038740030380008000000000000000000000000D4
:10388400000000000002000018000000000000001A
:10389400000000000000000001020304000000001A
:1038A40000000000010203040607080901020000E9
:1038B40002030405060708090A0B0C0D0E0F10106D
:0438C400790100087E
:0438C80051010008A2
:1038CC0000127A000100000010000000AAAAAAAAA7
:04000005080005C129
:00000001FF
