:020000040800F2
:1000000000500020D1030008A1030008A30300084A
:10001000A5030008A7030008A903000800000000CA
:100020000000000000000000000000007110000847
:10003000AB0300080000000011110008AD03000828
:10004000190400081904000819040008190400081C
:10005000190400081904000819040008190400080C
:1000600019040008190400081904000819040008FC
:1000700019040008190400081904000819040008EC
:1000800019040008190400081904000819040008DC
:1000900019040008190400081904000819040008CC
:1000A00019040008190400081904000819040008BC
:1000B00019040008190400081904000819040008AC
:1000C000190400081904000819040008190400089C
:1000D000190400081904000819040008190400088C
:1000E000C3030008190400081904000800000000F8
:1000F0000000000000000000000000000000000000
:0C01000000000000000000005FF808F1A3
:100110000348044B834202D0034B03B11847704796
:100120001000002010000020000000000548064BD1
:100130001B1AD90F01EBA301491002D0034B03B1E5
:100140001847704710000020100000200000000039
:1001500010B5064C237843B9FFF7DAFF044B13B10F
:100160000448AFF300800123237010BD100000206D
:10017000000000005C2A000808B5054B1BB10549CA
:100180000548AFF30080BDE80840FFF7CFBF00BFD0
:1001900000000000140000205C2A000808B50121BE
:1001A000034800F014FB4FF47A7000F0ADFEF6E760
:1001B000000C014008B5044A0021044800F04AFE42
:1001C000034B186008BD00BF982A00089D01000875
:1001D0002C000020B0F5805F00D0704708B50A20E1
:1001E00000F092FE4FF48051064800F0E3FA00B1AF
:1001F00008BD802100F1804000F5843000F0E7FA6E
:10020000F6E700BF000C01402DE9F04389B004ADD2
:10021000002404940594069407942A4B9A6942F0AA
:1002200020029A619A6902F020020192019A9A6969
:1002300042F004029A619A6902F004020292029A60
:100240009A6942F008029A619B6903F008030393DC
:10025000039BDFF8749022468021484600F0B1FAF3
:100260001A4E22460121304600F0ABFA8023049357
:100270000127059706944FF00208CDF81C80294607
:10028000484600F08DF9049705970694CDF81C8038
:100290002946304600F084F94FF4805304930C4B08
:1002A000059306942946304600F07AF92246052146
:1002B000282000F043F9282000F050F909B0BDE8EB
:1002C000F08300BF0010024000080140000C014014
:1002D0000000211072B6FEE710B590B006AC2822DF
:1002E0000021204602F07FFB002301930293039339
:1002F00004930593012306934FF48033079320461C
:1003000000F092FA78B90F230193012302930021A0
:1003100003914FF480630493059101A800F0B6FCAB
:1003200018B910B010BDFFF7D5FFFFF7D3FF08B520
:1003300000F09AF8FFF7D0FFFFF766FF00F05CFDD2
:10034000FFF738FF00F06AFDFEE7000000B583B05C
:10035000114B9A6942F001029A619A6902F0010216
:100360000092009ADA6942F08052DA61DB6903F0A8
:1003700080530193019B00220F216FF0010000F0D8
:10038000DDF8064A536823F0E06343F000735360DE
:1003900003B05DF804FB00BF001002400000014004
:1003A000FEE7FEE7FEE7FEE7FEE7704708B500F070
:1003B0006DF802F097F8012800D108BD00F0CAFEE0
:1003C000FBE708B54FF4805000F00AFA08BD70470B
:1003D000FFF7FDFF0B480C490C4A002302E0D458FC
:1003E000C4500433C4188C42F9D3094A094C002381
:1003F00001E013600432A242FBD302F0FDFAFFF7E2
:1004000096FF70470000002010000020E82A000836
:100410001000002084190020FEE7000010B50446FB
:100420000E4B1A784FF47A73B3FBF2F30C4A106850
:10043000B0FBF3F000F0A0F868B90F2C01D901204F
:100440000AE0002221464FF0FF3000F077F8054B1C
:100450001C60002000E0012010BD00BF040000204F
:10046000000000200800002008B5074A136843F088
:1004700010031360032000F04FF80F20FFF7CEFFAA
:10048000FFF764FF002008BD00200240034A116806
:10049000034B1B780B441360704700BF30000020F3
:1004A00004000020014B1868704700BF3000002096
:1004B000002808DB0901C9B200F1604000F5614085
:1004C00080F80013704700F00F000901C9B2014B1A
:1004D0001954704714ED00E000B500F00700C0F1BA
:1004E000070CBCF1040F28BF4FF0040C031D062BB2
:1004F0000FD9C31E4FF0FF3E0EFA0CF021EA0001A7
:1005000099400EFA03FE22EA0E0241EA02005DF86B
:1005100004FB0023EEE70000074AD36823F4E063FE
:100520001B041B0C000200F4E060034343F0BF63B4
:1005300043F40033D360704700ED00E010B504468B
:10054000054BD868C0F30220FFF7C6FF01462046DE
:10055000FFF7AEFF10BD00BF00ED00E0002807DB95
:1005600000F01F02400901239340024A42F8203064
:10057000704700BF00E100E00138B0F1807F0BD28E
:100580004FF0E0235861054AF02182F82310002043
:10059000986107221A6170470120704700ED00E062
:1005A00070B582B00024A4469EE07C4DAB4214D0CE
:1005B0000CD8A5F58015AB420FD005F57025AB42E0
:1005C0000BD0A5F58015AB421FD106E0744DAB42B0
:1005D00003D005F58035AB4217D18B68A3B1012B51
:1005E0000DD04261082410E0CC680EE0CC680434E1
:1005F0000BE0CC68083408E0CC680C3405E00261FC
:10060000082402E0002400E00424BEF1FF0F37D8E4
:1006100006464FEA8C0233680F25954023EA05030E
:1006200004FA02F2134333604B6813F0805F59D031
:100630005C4B9A6942F001029A619B6903F00103E5
:100640000193019B4FEA9C02951C574B53F8256080
:100650000CF00305AD000F23AB4026EA0306534B15
:10066000984214D003F58063984279D003F58063F3
:10067000984277D003F58063984206D0042307E0C0
:10068000061DACF108029200C5E7032300E0002339
:10069000AB4033430232444D45F822304B6813F4EB
:1006A000801F61D0424A936843EA0E0393604B680F
:1006B00013F4001F5ED03E4AD36843EA0E03D360B2
:1006C0004B6813F4003F5BD0394A536843EA0E038A
:1006D00053604B6813F4803F58D0354A136843EA9F
:1006E0000E0313600CF1010C0B6833FA0CF253D0BB
:1006F000012202FA0CF203EA020E32EA0303F1D1FC
:100700004B68122B3FF651AF122B3FF67EAF01A57F
:1007100055F823F0DB050008E9050008F30500089B
:10072000050600080B0600080B0600080B0600086B
:100730000B0600080B0600080B0600080B06000855
:100740000B0600080B0600080B0600080B06000845
:100750000B0600080B060008ED050008F905000867
:10076000012395E7022393E7114A936823EA0E03D6
:1007700093609CE70E4AD36823EA0E03D3609FE799
:100780000B4A536823EA0E035360A2E7084A136832
:1007900023EA0E031360A5E702B070BD000022102B
:1007A000000031100010024000000140000801402C
:1007B000000401408368194201D0012070470020E5
:1007C00070470AB101617047090401617047C3684D
:1007D00001EA030221EA030141EA02410161704793
:1007E00008B5054B5B69034200D108BD024B586157
:1007F000FFF7F0FCF9E700BF0004014082B0084BAE
:100800001B68084AA2FB03235B0A00FB03F3019366
:1008100000BF019B5A1E0192002BF9D102B0704714
:1008200000000020D34D6210002800F0F18170B567
:1008300082B00446036813F0010F2CD0994B5B681B
:1008400003F00C03042B1DD0964B5B6803F00C03E4
:10085000082B12D06368B3F5803F41D0002B55D1EF
:1008600003F1804303F504331A6822F480321A60DE
:100870001A6822F480221A6037E08A4B5B6813F40E
:10088000803FE7D0874B1B6813F4003F03D06368B9
:10089000002B00F0BF81236813F0020F75D0814B4D
:1008A0005B6813F00C0F5FD07E4B5B6803F00C03AA
:1008B000082B54D02369002B00F08A807A4B012248
:1008C0001A60FFF7EFFD0546764B1B6813F0020F29
:1008D00075D1FFF7E7FD401B0228F5D903209EE103
:1008E000704A136843F480331360636843B3FFF7BF
:1008F000D9FD05466B4B1B6813F4003FCBD1FFF7C6
:10090000D1FD401B6428F5D9032088E1B3F5A02F61
:1009100009D0644B1A6822F480321A601A6822F4F3
:1009200080221A60E1E703F18043A3F53C331A68A3
:1009300042F480221A601A6842F480321A60D4E7C6
:10094000FFF7B0FD0546574B1B6813F4003FA2D0DC
:10095000FFF7A8FD401B6428F5D903205FE1514B48
:100960005B6813F4803FA5D14E4B1B6813F0020F58
:1009700003D02369012B40F04F814A4A136823F0CA
:10098000F803616943EAC1031360236813F0080F99
:1009900033D0A369002B5CD0434B0122C3F88024E1
:1009A000FFF780FD05463F4B5B6A13F0020F21D134
:1009B000FFF778FD401B0228F5D903202FE1394AC3
:1009C000136823F0F803616943EAC1031360DCE7AD
:1009D000354B00221A60FFF765FD0546314B1B6859
:1009E00013F0020FD1D0FFF75DFD401B0228F5D9AF
:1009F000032014E10120FFF701FF236813F0040F27
:100A000000F09680274BDB6913F0805F34D1254BD3
:100A1000DA6942F08052DA61DB6903F080530193B6
:100A2000019B0125214B1B6813F4807F26D0E368CE
:100A3000012B3DD0002B53D103F1804303F5043348
:100A40001A6A22F001021A621A6A22F004021A6279
:100A500033E0154B0022C3F88024FFF723FD054641
:100A6000104B5B6A13F0020FC7D0FFF71BFD401B52
:100A70000228F5D90320D2E00025D3E70B4A1368FA
:100A800043F480731360FFF70DFD0646074B1B68A8
:100A900013F4807FCBD1FFF705FD801B6428F5D9C7
:100AA0000320BCE000100240000042420070004001
:100AB0005F4A136A43F001031362E36833B3FFF73D
:100AC000F1FC06465A4B1B6A13F0020F2FD1FFF7B9
:100AD000E9FC801B41F288339842F3D903209EE061
:100AE000052B09D0524B1A6A22F001021A621A6AC7
:100AF00022F004021A62E0E74D4B1A6A42F0040247
:100B00001A621A6A42F001021A62D6E7FFF7CAFCBB
:100B10000646474B1B6A13F0020F08D0FFF7C2FCD2
:100B2000801B41F288339842F3D9032077E0E5B97E
:100B3000E369002B72D03E4A526802F00C02082A88
:100B400056D0022B17D03B4B00221A66FFF7AAFCA7
:100B50000446374B1B6813F0007F47D0FFF7A2FC19
:100B6000001B0228F5D9032059E0314AD36923F04C
:100B70008053D361DCE72F4B00221A66FFF792FC0B
:100B800005462B4B1B6813F0007F06D0FFF78AFC4D
:100B9000401B0228F5D9032041E0236AB3F5803FCA
:100BA0001AD023494B6823F47413226A606A024303
:100BB00013434B601F4B01221A66FFF773FC044678
:100BC0001B4B1B6813F0007F0ED1FFF76BFC001B63
:100BD0000228F5D9032022E0154A536823F4003394
:100BE000A1680B435360DCE7002018E0002016E00A
:100BF000012B16D00E4B5B6803F48031226A9142C0
:100C000011D103F47013626A93420ED1002006E002
:100C100001207047012002E0012000E0002002B026
:100C200070BD0120FBE70120F9E70120F7E700BFD5
:100C300000100240000042420F4B5B6803F00C02C0
:100C4000082A01D00D487047C3F383420C49885CE1
:100C500013F4803F0BD0084B5B68C3F34043094A51
:100C6000D35C064A02FB00F0B0FBF3F07047064B82
:100C700003FB00F0704700BF0010024000127A0032
:100C8000D02A0008CC2A000800093D00002800F006
:100C9000A08070B50D460446524B1B6803F0070355
:100CA0008B420BD24F4A136823F007030B431360A8
:100CB000136803F007038B4240F08D80236813F024
:100CC000020F17D013F0040F04D0474A536843F4BF
:100CD000E0635360236813F0080F04D0424A53685E
:100CE00043F460535360404A536823F0F003A16813
:100CF0000B435360236813F0010F31D06368012B5D
:100D000020D0022B25D0384A126812F0020F64D08E
:100D100035494A6822F0030213434B60FFF7C2FBD8
:100D20000646314B5B6803F00C036268B3EB820F3D
:100D300016D0FFF7B7FB801B41F288339842F0D9F9
:100D4000032045E0284A126812F4003FE0D1012058
:100D50003EE0254A126812F0007FD9D1012037E029
:100D6000204B1B6803F00703AB420AD91D4A1368E6
:100D700023F007032B431360136803F00703AB4210
:100D80002DD1236813F0040F06D0174A536823F4BB
:100D9000E063E1680B435360236813F0080F07D04A
:100DA000114A536823F46053216943EAC103536035
:100DB000FFF742FF0C4B5B68C3F303130B4AD35C92
:100DC000D8400B4B18600B4B1868FFF727FB00202F
:100DD00070BD012070470120FAE70120F8E70120EB
:100DE000F6E700BF0020024000100240BC2A0008C5
:100DF0000000002008000020EFF305832BB9064B0C
:100E0000186828B901221A6070476FF00500704712
:100E10004FF0FF30704700BFEC060020EFF3058372
:100E200073B90A4B1B68012B0DD110B50024084B78
:100E3000DC77064B02221A6001F0B0F8204610BDA4
:100E40006FF0050070474FF0FF307047EC06002050
:100E500000ED00E0F0B587B000240594EFF30584C1
:100E600004BBF8B1002A34D0156893692BB11E4633
:100E7000013B372B02D9002015E01826536813F0E8
:100E8000010F3FD1546984B14FEA940C93682BB1A0
:100E9000D7685B2F02D9176907B184B943B14FF006
:100EA000FF330BB3059807B0F0BD4FF0800CEDE7B2
:100EB000D368A3B91369ABB14FF0FF33F1E70293E5
:100EC000019700960B466246294600F0F9FF05900F
:100ED000E8E71546002318264FF0800CE1E74FF0B5
:100EE000FF33DEE70023DCE705AB019300960B46FA
:100EF0001FFA8CF2294601F01EF80128D2D00023F7
:100F00000593CFE70020CEE708B5EFF3058333B9AB
:100F100008B9002008BD01F0A3F90020FAE76FF03E
:100F20000500F7E7034B0360034B0B60802313605E
:100F3000704700BF9006002090040020034B036020
:100F4000034B0B604FF48073136070473404002030
:100F50003400002000F1080343604FF0FF3282604C
:100F6000C36003610023036070470023036170477F
:100F700043684B609A688A605160996008610368B1
:100F800001330360704730B40D68B5F1FF3F11D0F5
:100F900000F108031C465B681A68AA42FAD9636824
:100FA0004B6099608C606160086103680133036085
:100FB00030BC70470469F2E70369416882688A605F
:100FC000416851605A68824206D0002202611A6864
:100FD000013A1A601868704782685A60F5E70000A5
:100FE00082B0002301930D4B1B68B3F1FF3F08D083
:100FF0004FF0500383F31188BFF36F8FBFF34F8F10
:10100000FEE74FF0500383F31188BFF36F8FBFF3F8
:101010004F8F019B002BFCD002B070470C000020CA
:1010200006480068006880F3088862B661B6BFF3BE
:101030004F8FBFF36F8F00DF00BF000008ED00E0AF
:101040004FF0807340F8043C21F0010140F8081C87
:10105000034B40F80C3C40F8202C4038704700BF50
:10106000E10F000800000000000000000000000088
:10107000074B19680868B0E8F00F80F30988BFF3E0
:101080006F8F4FF0000080F311884EF00D0E704707
:10109000541800204FF0500383F31188BFF36F8F73
:1010A000BFF34F8F0B4A136801331360012B00D03D
:1010B00070474FF0E023D3F8043D13F0FF0FF7D053
:1010C0004FF0500383F31188BFF36F8FBFF34F8F3F
:1010D000FEE700BF0C000020094B1B6843B94FF02E
:1010E000500383F31188BFF36F8FBFF34F8FFEE779
:1010F000013B034A13600BB983F31188704700BFAB
:101100000C000020000000000000000000000000B3
:10111000EFF30980BFF36F8F0D4B1A6820E9F00FD2
:10112000106008B54FF0500080F3118801F0BEF850
:101130004FF0000080F31188BDE808401968086886
:10114000B0E8F00F80F30988BFF36F8F704700BFDE
:101150005418002008B54FF0500383F31188BFF3F3
:101160006F8FBFF34F8F00F073FF28B14FF0E02374
:101170004FF08052C3F8042D002383F3118808BD7B
:101180004FF0E022002313619361054B1B68054972
:10119000A1FB03139B09013B5361072313617047B4
:1011A00000000020D34D621010B582B02A4B1A788F
:1011B000D2B20192FF221A701B78DBB28DF8033095
:1011C0009DF8033003F05003244A1370244B072288
:1011D0001A6009E0224A1368013B13609DF803304E
:1011E0005B00DBB28DF803309DF8033013F0800F05
:1011F000F0D11B4B1B68032B08D04FF0500383F337
:101200001188BFF36F8FBFF34F8FFEE71B02144AA5
:10121000136003F4E0631360019BDBB20E4A1370AA
:101220004FF0E023D3F8202D42F47002C3F8202DB4
:10123000D3F8202D42F07042C3F8202DFFF7A0FF15
:101240000024084B1C60FFF7EBFE01F02FF8FFF7BE
:10125000C7FE204602B010BD00E400E0F406002006
:10126000F00600200C000020EFF305830F2B0ED9B1
:10127000114A9A5C114B1B789A4208D24FF05003E6
:1012800083F31188BFF36F8FBFF34F8FFEE74FF0EB
:10129000E023D3F80C3D03F4E063094A126893425B
:1012A00008D94FF0500383F31188BFF36F8FBFF35A
:1012B0004F8FFEE7704700BFF0E300E0F406002028
:1012C000F0060020124A12F0070F1ED0D11D21F0A7
:1012D0000701C1F5406313440A460E48026000212D
:1012E00041601344083B23F007030B480360596037
:1012F0001960991A51601360084B1960084B196006
:10130000084B4FF000421A6070474FF44063E4E727
:1013100018070020100700200C07002004070020F9
:1013200008070020F8060020154B1A461B68834268
:10133000FBD3516802EB010C844509D0416800EBF6
:10134000010C634509D00360904218D010607047CB
:101350004068014451601046F0E710B4094C24681D
:10136000A3420AD05B681944416013681B6803609C
:10137000904200D0106010BC70470460F8E77047DE
:10138000100700200C07002038B5044600F052FE7C
:10139000384B1B68B3B1384B1B681C4250D1002C32
:1013A00050D004F1080214F0070F02D022F0070217
:1013B0000832002A55D0314B1B68934253D3304931
:1013C0000C6804E0FFF77EFFE5E721461C466368F2
:1013D000934202D22368002BF7D1264B1B68A3420D
:1013E00043D00D68083523680B6063689B1A102B87
:1013F00010D9A01810F0070F08D04FF0500383F356
:101400001188BFF36F8FBFF34F8FFEE743606260B9
:10141000FFF78AFF626819490B689B1A0B6019492C
:1014200009688B4201D217490B60134B1B681343A9
:10143000636000232360144A13680133136002E0E1
:10144000002500E0002500F08FFE15F0070F0ED0FC
:101450004FF0500383F31188BFF36F8FBFF34F8FAB
:10146000FEE70025EFE70025EDE70025EBE728463E
:1014700038BD00BF0C070020F80600200807002038
:10148000100700200407002000070020002834D0A7
:1014900038B50446A0F1080550F8043C174A126814
:1014A000134208D14FF0500383F31188BFF36F8FBD
:1014B000BFF34F8FFEE750F8081C41B14FF05003C7
:1014C00083F31188BFF36F8FBFF34F8FFEE723EADB
:1014D000020340F8043C00F0ADFD54F8041C084A37
:1014E00013680B4413602846FFF71EFF054A136874
:1014F0000133136000F038FE38BD7047F806002055
:1015000008070020FC06002010B50446FFF7C2FDC6
:10151000A26BE36B9A4204D00024FFF7DDFD204666
:1015200010BD0124F9E710B50446FFF7B3FDA36B26
:1015300023B90124FFF7D0FD204610BD0024F9E7B0
:1015400070B504461546866B026C5AB903681BB128
:1015500000200136A66370BD806800F0D3FF002331
:10156000A360F6E76DB9406801F06AFA6368226C1F
:1015700013446360A268934219D3236863602846CA
:10158000E7E7C06801F05CFAE368226C51429B1AFD
:10159000E3602268934202D2A3680B44E360022D09
:1015A00001D00020D5E726B1013E0020D1E7284632
:1015B000CFE70020CDE708B50346026C62B10846CC
:1015C000D9681144D960D3F808C0614501D31968BE
:1015D000D960D96801F034FA08BD38B50546FFF77F
:1015E00059FD95F8454064B201E0013C64B2002C1D
:1015F0000ADD6B6A43B105F1240000F0D7FE002834
:10160000F3D000F069FFF0E7FF2385F84530FFF7DE
:1016100063FDFFF73FFD95F8444064B201E0013CF3
:1016200064B2002C0ADD2B6943B105F1100000F013
:10163000BDFE0028F3D000F04FFFF0E7FF2385F850
:101640004430FFF749FD38BD38B5E0B10D460446DA
:10165000FFF720FD2368E26B216C01FB0230A060E4
:101660000020A0636360013A02FB0133E360FF23C3
:1016700084F8443084F84530FDB9236963B9FFF735
:101680002BFD012038BD4FF0500383F31188BFF3C9
:101690006F8FBFF34F8FFEE704F1100000F086FE5E
:1016A0000028ECD04FF0E0234FF08052C3F8042D17
:1016B000BFF34F8FBFF36F8FE1E704F11000FFF727
:1016C00049FC04F12400FFF745FCD8E738B51D4676
:1016D000049C0B4649B92460E06323640121204641
:1016E000FFF7B2FF84F84C5038BD2260F4E740B9F0
:1016F0004FF0500383F31188BFF36F8FBFF34F8F09
:10170000FEE710B584B01C46844653B192B189B946
:101710004FF0500383F31188BFF36F8FBFF34F8FE8
:10172000FEE74FF0500383F31188BFF36F8FBFF3D1
:101730004F8FFEE76AB150230393039B502B13D0C6
:101740004FF0500383F31188BFF36F8FBFF34F8FB8
:10175000FEE70029EFD04FF0500383F31188BFF369
:101760006F8FBFF34F8FFEE7039B012384F8463052
:1017700000949DF818306046FFF7A8FF204604B09B
:1017800010BDF0B585B0019288B10F461D460446E4
:10179000B1B1022D20D1E36B012B1DD04FF05003CE
:1017A00083F31188BFF36F8FBFF34F8FFEE74FF0C6
:1017B000500383F31188BFF36F8FBFF34F8FFEE7A2
:1017C000036C002BE5D04FF0500383F31188BFF377
:1017D0006F8FBFF34F8FFEE700F084FE064658B9C7
:1017E000019B002B48D04FF0500383F31188BFF3C7
:1017F0006F8FBFF34F8FFEE700263DE02A46394644
:101800002046FFF79DFE636A7BB948B14FF0E023A5
:101810004FF08052C3F8042DBFF34F8FBFF36F8F8B
:10182000FFF75AFC012005B0F0BD04F1240000F0E0
:10183000BDFD0028F4D04FF0E0234FF08052C3F8F4
:10184000042DBFF34F8FBFF36F8FE9E7FFF744FC21
:101850000020E8E702A800F0EFFD012619E00023D0
:1018600084F8443021E0002384F8453023E020460A
:10187000FFF7B3FE00F078FCFFF70CFCA26BE36B04
:101880009A42BBD3022DB9D0019B002BDED0002E93
:10189000E0D0FFF721FC00F0CDFBFFF7FBFB94F855
:1018A000442052B2B2F1FF3FD9D094F8452052B251
:1018B000B2F1FF3FD7D0FFF70FFC01A902A800F05B
:1018C000C7FDD8B92046FFF71FFE0028CFD00199E9
:1018D00004F1100000F036FD2046FFF77EFE00F018
:1018E00043FC0028C8D14FF0E0234FF08052C3F8EA
:1018F000042DBFF34F8FBFF36F8FBDE72046FFF777
:101900006CFE00F031FC00208DE72DE9F84390B12A
:101910000F4616461C460546B1B1022C20D1EB6B92
:10192000012B1DD04FF0500383F31188BFF36F8F4D
:10193000BFF34F8FFEE74FF0500383F31188BFF3DF
:101940006F8FBFF34F8FFEE7036C002BE5D04FF096
:10195000500383F31188BFF36F8FBFF34F8FFEE700
:10196000FFF782FCEFF311884FF0500383F31188E7
:10197000BFF36F8FBFF34F8FAA6BEB6B9A4206D307
:10198000022C04D0002088F31188BDE8F88395F874
:1019900045904FFA89F9AB6B224639462846FFF746
:1019A000CFFDB9F1FF3F06D009F101035BB285F825
:1019B00045300120E7E76B6A0BB90120E3E705F149
:1019C000240000F0F3FC18B126B101203060DAE702
:1019D0000120D8E70120D6E7F0B585B0019290B19B
:1019E0000F460446C1B100F07DFD064600BB019BD9
:1019F000002B5ED04FF0500383F31188BFF36F8F3D
:101A0000BFF34F8FFEE74FF0500383F31188BFF30E
:101A10006F8FBFF34F8FFEE7036C002BE3D04FF0C7
:101A2000500383F31188BFF36F8FBFF34F8FFEE72F
:101A300000263EE039462046FFF7BDFD013DA56387
:101A4000236923B9FFF748FB012005B0F0BD04F17D
:101A5000100000F0ABFC0028F4D04FF0E0234FF072
:101A60008052C3F8042DBFF34F8FBFF36F8FE9E7A8
:101A7000FFF732FB0020E8E702A800F0DDFC0126BA
:101A800021E0002384F8443029E0002384F8453025
:101A90002BE02046FFF7A1FD00F066FB09E02046A1
:101AA000FFF79BFD00F060FB2046FFF73CFD0028A0
:101AB0003FD1FFF7EFFAA56B002DBBD1019B002BA7
:101AC000D6D0002ED8D0FFF707FB00F0B3FAFFF70F
:101AD000E1FA94F844305BB2B3F1FF3FD1D094F80F
:101AE00045305BB2B3F1FF3FCFD0FFF7F5FA01A964
:101AF00002A800F0ADFC0028D1D12046FFF713FD6D
:101B00000028C6D0019904F1240000F01BFC2046F7
:101B1000FFF763FD00F028FB0028CAD14FF0E02357
:101B20004FF08052C3F8042DBFF34F8FBFF36F8F78
:101B3000BFE7002089E700000023072B0CD8074AE5
:101B400052F833200AB10133F7E7044A42F8331060
:101B500002EBC30250607047704700BF18130020AB
:101B600070B504460D461646FFF794FA94F84430D3
:101B70005BB2B3F1FF3F0DD094F845305BB2B3F1E7
:101B8000FF3F0BD0FFF7A8FAA36B5BB12046FFF72E
:101B900024FD70BD002384F84430EDE7002384F871
:101BA0004530EFE73246294604F1240000F0E2FB1D
:101BB000ECE70000084B1B681B6823B9074B4FF08C
:101BC000FF321A607047044B1B68DB68DB685A6899
:101BD000024B1A60704700BFC8130020601300203A
:101BE0002DE9F04780460D4617469946089EDDF8D8
:101BF00024A00A9C9200A521206B00F0F4FE236B28
:101C000007F18042013A03EB820727F00707A5B3EB
:101C10004FF0000CBCF10F0F09D815F80C3004EB95
:101C20000C0282F8343013B10CF1010CF2E70023FE
:101C300084F84330372E00D93726E662E664002563
:101C40002565201DFFF791F904F11800FFF78DF9C4
:101C50002461C6F13806A6616462656584F858504F
:101C60004A4641463846FFF7EBF92060BAF1000FCB
:101C700001D0CAF80040BDE8F087002384F8343072
:101C8000D8E7000038B5002407E004EB8402930095
:101C90000E481844FFF75EF90134372CF5D90C4D86
:101CA0002846FFF757F90B4C2046FFF753F90A482F
:101CB000FFF750F90948FFF74DF90948FFF74AF9CE
:101CC000084B1D60084B1C6038BD00BFF41300209A
:101CD000E0130020CC130020B01300209C13002040
:101CE00084130020C8130020C413002010B504463C
:101CF000FFF7D0F9224A136801331360214B1B68A8
:101D00005BB1214B1B686BB91E4B1B68DA6AE36A37
:101D10009A4207D81B4B1C6004E01A4B1C601368E6
:101D2000012B29D0194A1368013313606364E06AF8
:101D3000174B1B68984201D9154B186000EB8000C7
:101D4000211D144B03EB8000FFF712F9FFF7C4F9D4
:101D50000D4B1B687BB10B4B1B68DA6AE36A9A4236
:101D600009D24FF0E0234FF08052C3F8042DBFF3A7
:101D70004F8FBFF36F8F10BDFFF784FFD2E700BF17
:101D800080130020541800207413002064130020D6
:101D900078130020F413002010B5044690F8593051
:101DA00063B1012B11D0022B0ED04FF0500383F3FF
:101DB0001188BFF36F8FBFF34F8FFEE7006BFFF704
:101DC00065FB2046FFF762FB10BDFFF75FFBFBE7FB
:101DD0000F4B1B68D3B110B5FFF75CF90D4BDB68F7
:101DE000DC68201DFFF7E8F80B4A1368013B13601D
:101DF000074A1368013B1360FFF76EF92046FFF7AF
:101E0000CBFF034B1B68002BE6D110BD704700BF12
:101E1000981300209C1300208013002008B5FFF7C2
:101E2000D7FF074B1B68012BF9D94FF0E0234FF088
:101E30008052C3F8042DBFF34F8FBFF36F8FEEE7CF
:101E4000F413002070B504460D46174B1E68174B5F
:101E500018680430FFF7B0F8B4F1FF3F0DD03444F8
:101E6000124B1B685C60A64210D9114B18680F4BCF
:101E700019680431FFF787F870BD002DEFD00B4BC8
:101E8000196804310B48FFF773F8F5E70A4B186837
:101E9000064B19680431FFF776F8084B1B68A3421C
:101EA000EAD9064B1C60E7E77C1300205418002099
:101EB000C413002084130020C813002060130020E6
:101EC00030B587B00B9C7CB10C9DB5B15C250495F9
:101ED000049D5C2D1AD04FF0500383F31188BFF39B
:101EE0006F8FBFF34F8FFEE74FF0500383F31188DE
:101EF000BFF36F8FBFF34F8FFEE74FF0500383F3B5
:101F00001188BFF36F8FBFF34F8FFEE7049D0C9DC9
:101F10002C63022485F8594000240394029505ACF3
:101F200001940A9C0094FFF75BFE0C98FFF7DEFE1D
:101F3000059807B030BD2DE9F04385B007468846C7
:101F400014461E469000FFF71FFA08B381465C2036
:101F5000FFF71AFA0546A8B1C0F83090002380F8C0
:101F60005930039302900D9B01930C9B00933346D1
:101F7000224641463846FFF733FE2846FFF7B6FEB5
:101F8000012007E04846FFF781FA4FF0FF3001E0FB
:101F90004FF0FF3005B0BDE8F083000010B588B009
:101FA00000240594069407AA06A905A8FEF7BAFF1F
:101FB000059B0293069B019300942346079A1749B9
:101FC0001748FFF77DFF174B1860C0B100F04EFBBC
:101FD000012815D14FF0500383F31188BFF36F8FA1
:101FE000BFF34F8F104B4FF0FF321A600F4B01229F
:101FF0001A600F4B00221A60FFF7D6F803E00020AA
:10200000B0F1FF3F01D008B010BD4FF0500383F393
:102010001188BFF36F8FBFF34F8FFEE7802A000850
:102020001D1E00085C1300206013002074130020A4
:102030007C130020024A136801331360704700BF0D
:1020400058130020014B1868704700BF7C13002014
:10205000F8B53A4B1B68002B69D1394B1D68013527
:102060001D60C5B9374B1B681B6843B14FF0500367
:1020700083F31188BFF36F8FBFF34F8FFEE7314AB1
:102080001168314B186810601960304A13680133C9
:102090001360FFF78FFD2E4B1B68AB423DD9002725
:1020A0002C4B1B68DB6A03EB83039A002A4B9B587B
:1020B000012B00D90127294B1B68002B3CD001279D
:1020C0003AE001271F4B1B681B6843B31D4B1B687D
:1020D000DB68DC6863689D4226D3261D3046FEF728
:1020E0006BFFA36A1BB104F11800FEF765FFE36AFA
:1020F0001B4A1268934201D9194A136003EB830308
:102100009A00314614481044FEF732FFE26A114B40
:102110001B68DB6A9A42D4D2D4E70027D2E70C4B83
:102120004FF0FF321A60BBE7094A1360B8E70D4A67
:1021300013680133136000273846F8BD5813002098
:102140007C130020C8130020C41300206813002053
:102150006013002054180020F41300206C1300209A
:10216000781300207013002038B5354B1B6843B935
:102170004FF0500383F31188BFF36F8FBFF34F8F7E
:10218000FEE7FEF787FF2E4B1A68013A1A601B68BC
:10219000002B4FD12B4B1B680BB900244BE00024C4
:1021A000294B1B681BB3284BDB68DC6804F1180063
:1021B000FEF702FF251D2846FEF7FEFEE06A234BD0
:1021C0001B68984201D9214B186000EB800029461A
:1021D0001F4B03EB8000FEF7CBFEE26A1D4B1B6832
:1021E000DB6A9A42DCD31C4B01221A60D8E70CB19F
:1021F000FFF7E0FC194B1C6884B9174B1C68D4B17D
:102200004FF0E0234FF08052C3F8042DBFF34F8FFF
:10221000BFF36F8F01240EE0013C07D0FFF718FFDA
:102220000028F9D00C4B01221A60F5E70B4B002275
:102230001A60E2E70024FEF74FFF204638BD00BFDA
:102240005813002080130020B013002078130020C2
:10225000F4130020541800206C1300207013002089
:1022600010B5A8B10446104B1B6843B14FF05003A2
:1022700083F31188BFF36F8FBFF34F8FFEE7FFF734
:10228000D9FE00212046FFF7DDFDFFF76DFF48B9BD
:102290004FF0E0234FF08052C3F8042DBFF34F8F6F
:1022A000BFF36F8F10BD00BF58130020204B1B6879
:1022B0001BB1204B01221A6070471E4B00221A608E
:1022C0001D4B1B6803EB83018A001C498A585AB9CD
:1022D0000BB1013BF6E74FF0500383F31188BFF3D6
:1022E0006F8FBFF34F8FFEE7084603EB83018A0031
:1022F000024451684968516003EB830C4FEA8C0239
:102300000832024491420BD003EB830291000B4A46
:102310000A445268D1680A4A1160074A136070473C
:10232000486862469100054A0A445060ECE700BFE5
:10233000581300206C13002078130020F4130020A1
:102340005418002058B110B50C46094A11681831CC
:10235000FEF719FE01212046FFF774FD10BD4FF076
:10236000500383F31188BFF36F8FBFF34F8FFEE7E6
:102370005418002038B570B10D4614460A4A116849
:102380001831FEF7F5FD0CB14FF0FF352146284618
:10239000FFF758FD38BD4FF0500383F31188BFF3AA
:1023A0006F8FBFF34F8FFEE75418002038B5C36816
:1023B000DC6824B304F118052846FEF7FDFD184B30
:1023C0001B682BBB251D2846FEF7F6FDE06A154B62
:1023D0001B68984201D9134B186000EB8000294616
:1023E000114B03EB8000FEF7C3FDE26A0F4B1B6845
:1023F000DB6A9A4211D901200D4B186038BD4FF0AD
:10240000500383F31188BFF36F8FBFF34F8FFEE745
:1024100029460848FEF7ACFDE7E70020EEE700BFDD
:102420005813002078130020F413002054180020C3
:102430006C130020B0130020034B1B680360034B98
:102440001B684360704700BF681300207C130020A6
:1024500038B5E0B10C46054611B3FEF71BFE1C4B28
:1024600019686B68C81A2268B2F1FF3F29D0DFF8FB
:1024700064C0DCF800C0D5F800E0E64501D08B422E
:1024800024D9824215D80023236001241AE04FF09A
:10249000500383F31188BFF36F8FBFF34F8FFEE7B5
:1024A0004FF0500383F31188BFF36F8FBFF34F8F4B
:1024B000FEE75B1A134423602846FFF7BDFF0024A4
:1024C00000E00024FEF708FE204638BD0124F9E7AD
:1024D0007C13002068130020014B01221A60704712
:1024E0006C130020054B1B6833B1054B1B680BB107
:1024F00000207047022070470120704774130020AD
:102500005813002000283BD038B504461E4B1B68EA
:10251000834208D04FF0500383F31188BFF36F8FCD
:10252000BFF34F8FFEE7036D43B94FF0500383F3C2
:102530001188BFF36F8FBFF34F8FFEE7013B036539
:10254000C16AC26C91421DD00BB1002038BD051D7F
:102550002846FEF731FDE06CE062C0F13803A3616C
:102560000A4B1B68984201D9084B186000EB8000A9
:102570002946074B03EB8000FEF7FAFC0120E5E754
:10258000002070470020E1E7541800207813002055
:10259000F4130020064B1A6813682BB9012303605B
:1025A00023B9D368186870470023F8E70020704704
:1025B0005819002008B54160006191420CD8D21A28
:1025C00083699A4201D3012008BD011D094B186897
:1025D000FEF7D9FC0020F7E79A4201D2994206D2D1
:1025E000011D054B1868FEF7CEFC0020ECE701202A
:1025F000EAE700BF541900205819002030B583B015
:10260000FEF748FD114B1B681BB1FEF765FD03B0DB
:1026100030BD0F4D2846FEF79DFC0E4C2046FEF7C0
:1026200099FC0D4B1D600D4B1C60002300930C4B5F
:102630000C4A10210A20FFF75AF8044B18600028B2
:10264000E3D00949FFF778FADFE700BF501900200F
:10265000701900205C19002058190020541900201E
:1026600058180020A8180020882A000810B588B043
:10267000FFF7C4FF124B1B68CBB1002405940694EE
:1026800007AA06A905A8FEF759FC059B0293069B1D
:102690000193022300932346079A0A490A48FFF749
:1026A0000FFC0A4B186010B1012008B010BD4FF0AC
:1026B000500383F31188BFF36F8FBFF34F8FFEE793
:1026C00050190020902A0008D12900084C19002038
:1026D000B8B19C4603461848006858B300B585B0A9
:1026E00000910192029305291CDCFFF7FBFE0228F2
:1026F00010D000231A4669460F480068FFF741F8DA
:1027000015E04FF0500383F31188BFF36F8FBFF3D1
:102710004F8FFEE70023069A694607480068FFF7D7
:1027200030F804E0002362466946FFF7EEF805B092
:102730005DF804FB002070475019002070B582B08E
:102740001B4B1B681A6862B3DB681E68DC68251DBA
:102750002846FEF731FC236A2046984794F8283033
:1027600013F0040FECD0A36933449E4207D2636098
:10277000246129460E4B1868FEF705FCE0E70021AE
:1027800000910B4632462046FFF7A2FF0028D7D122
:102790004FF0500383F31188BFF36F8FBFF34F8F58
:1027A000FEE7044A106802490860136002B070BD79
:1027B000581900205419002038B50546FFF742FC8F
:1027C0000446074B1B68834205D800232B60044B4B
:1027D0001C60204638BDFFF7B1FF01232B60F6E7F0
:1027E0004819002070B582B006460D4617490968A1
:1027F000C968CC68201DFEF7DFFB94F828C01CF0E8
:10280000040F08D12CF0010C84F828C0236A20465C
:10281000984702B070BDA16933462A46314420462C
:10282000FFF7C8FE0028F1D0002100910B46324688
:102830002046FFF74DFF0028E8D14FF0500383F307
:102840001188BFF36F8FBFF34F8FFEE75819002039
:1028500070B582B006460C46FFF7ECFB01A8FFF707
:10286000ABFF019B33BB0546E4B9B04213D222460D
:10287000711B124B1868FFF773F9FFF775FCD8B995
:102880004FF0E0234FF08052C3F8042DBFF34F8F79
:10289000BFF36F8F10E0FFF767FC29463046FFF764
:1028A000A1FF09E0064A126812680AB90124DEE7AE
:1028B0001C46DCE7FFF758FC02B070BD5019002041
:1028C0005419002010B588B002E0049B002B0FDAE9
:1028D000002204A93D4B1868FFF77EF8002872D04B
:1028E000049B002BF1DA07990698059B9847ECE7C3
:1028F000069C636913B1201DFEF75EFB03A8FFF77A
:102900005BFF0246049B092BE2D8DFE803F00505D4
:10291000052F364E05052F3694F8283043F0010375
:1029200084F82830059BA16919442046FFF742FE30
:102930000028CDD0236A2046984794F8283013F019
:10294000040FC5D0A269002100910B4605980244EE
:102950002046FFF7BDFE0028BAD14FF0500383F3A5
:102960001188BFF36F8FBFF34F8FFEE794F82830C5
:1029700023F0010384F82830AAE794F8283043F0C4
:10298000010384F828300599A16129B10346014467
:102990002046FFF70FFE9BE74FF0500383F31188AB
:1029A000BFF36F8FBFF34F8FFEE794F8283013F01B
:1029B000020F04D023F0010384F8283088E7204672
:1029C000FEF764FD84E708B010BD00BF5019002079
:1029D00000B583B001A8FFF7DDFD0199FFF738FFCF
:1029E000FFF770FFF6E703460244934200D17047B9
:1029F00003F8011BF9E7000070B500260C4D0D4BE4
:102A00005B1B9C10A64209D1002600F027F80A4D56
:102A10000A4B5B1B9C10A64205D170BD55F8043BC8
:102A200098470136EEE755F8043B98470136F2E740
:102A3000E02A0008E02A0008E02A0008E42A00084A
:102A40000A44914200F1FF3300D1704710B511F8EC
:102A5000014B914203F8014FF9D110BDF8B500BF09
:102A6000F8BC08BC9E467047F8B500BFF8BC08BC6F
:042A70009E467047C7
:102A740064656661756C745461736B0049444C45BC
:102A840000000000546D725100000000546D72206B
:102A940053766300742A0008000000000000000060
:102AA4000000000000000000000200001800000008
:102AB4000000000000000000000000000000000012
:102AC40001020304060708090102000002030405C9
:0C2AD400060708090A0B0C0D0E0F10106D
:042AE0007901000870
:042AE4005101000894
:102AE80000127A000100000010000000AAAAAAAA99
:04000005080003D11B
:00000001FF
