:020000040800F2
:1000000000500020310900083D0800083F080008A2
:1000100041080008430800084508000800000000E7
:10002000000000000000000000000000B1230008F4
:100030004708000800000000512400084908000893
:100040007909000879090008790900087909000888
:100050007909000879090008790900087909000878
:100060007909000879090008790900087909000868
:100070007909000879090008790900087909000858
:10008000610800087108000879090008790900086A
:100090007909000879090008790900087909000838
:1000A0007909000879090008790900087909000828
:1000B0007909000879090008790900087909000818
:1000C0007909000879090008790900087909000808
:1000D00079090008790900088108000891080008DA
:1000E000A10800087909000879090008000000004B
:1000F0000000000000000000000000000000000000
:0C01000000000000000000005FF808F1A3
:100110000348044B834202D0034B03B11847704796
:100120006C0000206C000020000000000548064B19
:100130001B1AD90F01EBA301491002D0034B03B1E5
:10014000184770476C0000206C0000200000000081
:1001500010B5064C237843B9FFF7DAFF044B13B10F
:100160000448AFF300800123237010BD6C00002011
:1001700000000000604D000808B5054B1BB10549A3
:100180000548AFF30080BDE80840FFF7CFBF00BFD0
:100190000000000070000020604D0008002863D0BF
:1001A0000346002960D030B50478427844EA02243E
:1001B000C4F30A040C80427890F802E04FEA4E1E25
:1001C0004EEAD20ECEF30A0EA1F802E08078DA7879
:1001D000920042EA9012187942EA8022C2F30A029F
:1001E0008A80187993F805C04FEACC1C4CEA500C71
:1001F000CCF30A0CA1F806C05879C0F3011088723C
:1002000058798009C8729879DD7940EA052088819B
:10021000187A5D7A40EA0520C881987ADD7A40EA4A
:1002200005200882187B8874587BC874987BDD7B16
:1002300040EA05208882187C5B7C40EA03231BB2DD
:100240000B81A4F580640C80AEF5806EA1F802E00D
:10025000A2F580628A80ACF5806CA1F806C09BB2E2
:10026000A3F580630B8130BD704700002DE9F0439A
:1002700089B004AD002404940594069407942A4B95
:100280009A6942F020029A619A6902F02002019272
:10029000019A9A6942F004029A619A6902F0040292
:1002A0000292029A9A6942F008029A619B6903F0ED
:1002B00008030393039BDFF874902246C02148464D
:1002C00000F0C3FE1A4E22460121304600F0BDFE6A
:1002D000C02304930127059706944FF00208CDF838
:1002E0001C802946484600F09FFD04970597069418
:1002F000CDF81C802946304600F096FD4FF480531F
:1003000004930C4B059306942946304600F08CFD6F
:1003100022460521282000F0C1FB282000F0CEFB5A
:1003200009B0BDE8F08300BF0010024000080140A2
:10033000000C01400000211000B583B00E4B5A693B
:1003400042F001025A615B6903F001030193019BD2
:1003500000220521102000F0A1FB102000F0AEFBD0
:1003600000220521112000F099FB112000F0A6FBCE
:1003700003B05DF804FB00BF0010024008B5012186
:10038000034800F068FE4FF47A7001F08DFEF6E746
:10039000000C014000B58FB0052001F085FE12224F
:1003A0002A492B4801F0C8FD0023089309930A93BA
:1003B0000B930C93ADF8343002E00A2001F074FE88
:1003C00000230393049305930693ADF81C30214B4F
:1003D0001B68002BF1D003AC6423002221461E4889
:1003E000006801F0FDFE08A92046FFF7D7FEBDF921
:1003F0002630BDF9282001920093BDF92430BDF9C3
:100400002220BDF92010154803F0CCFD9DF82B20CB
:100410009DF82A10124803F0C5FD9DF832309DF872
:10042000332001920093BDF93030BDF92E20BDF983
:100430002C100C4803F0B6FDBDF834100A4803F048
:10044000B1FD044B00221A60BAE700BFB0010020E2
:1004500064010020AC01002088000020784D0008D5
:10046000984D0008A84D0008D04D000810B514465E
:100470004FF0FF3392B2024801F053FA204610BD0C
:100480001C01002070B586B00023019302930393F2
:100490000493ADF814300268184B9A4201D006B0AC
:1004A00070BD04460DF1040C0029F8D01229F6D8CD
:1004B0006646134D0A462946604603F034FF002382
:1004C0001A4631460F48006801F048FE0E4B0122E3
:1004D0001A600023009323681A6800925B680093F7
:1004E000009B12222946094801F026FD084B1A6894
:1004F000136823F004031360D1E700BF00440040F9
:10050000B001002088000020AC0100206401002020
:10051000D8000020B0F5805F00D0704708B50A20F1
:1005200001F0C2FD4FF48051074800F087FD00B193
:1005300008BD802100F1804000F5843000F08BFD83
:10054000024803F097FDF3E7000C0140E04D00087E
:1005500072B6FEE708B50A480A4B03604FF4E13370
:10056000436000238360C36003610C2242618361A6
:10057000C36101F0A6F900B908BDFFF7E9FF00BFAC
:10058000640100200044004008B50A480A4B03609B
:100590004FF4E133436000238360C36003610C22A6
:1005A00042618361C36101F08CF900B908BDFFF7B6
:1005B000CFFF00BF1C0100200048004010B590B0E4
:1005C00006AC28220021204603F032FE00230193CE
:1005D0000293039304930593012306934FF480330E
:1005E0000793204600F064FD78B90F23019301239F
:1005F0000293002103914FF480630493059101A8B5
:1006000000F088FF18B910B010BDFFF7A1FFFFF789
:100610009FFF000008B500F0D7F9FFF7CFFFFFF705
:1006200025FEFFF789FEFFF795FFFFF7ADFF01F00D
:10063000B3FC0C4A1221102001F044FD0A4B186053
:100640000A4A00210A4801F0D5FC0A4B18600A4A00
:1006500000210A4801F0CEFC094B186001F0AEFC05
:10066000FEE700BF284E000888000020644E000806
:100670007D03000890000020404E0008950300080C
:100680008C00002000B583B0114B9A6942F0010242
:100690009A619A6902F001020092009ADA6942F0C6
:1006A0008052DA61DB6903F080530193019B0022E1
:1006B0000F216FF0010000F0F1F9064A536823F0B2
:1006C000E06343F00073536003B05DF804FB00BFC8
:1006D0000010024000000140F0B589B000230493EF
:1006E00005930693079303684B4A934204D04B4A01
:1006F00093425DD009B0F0BD0446494BDA6942F43B
:100700000032DA61DA6902F400320092009A9A69E2
:1007100042F004029A619B6903F004030193019B78
:1007200004230493022305930323079304AF3D4E50
:100730003946304600F078FB0823049300250595E0
:1007400006953946304600F06FFB3748374B03605B
:10075000456085608023C360056145618561C56131
:1007600000F0E4F9F0B9304BE3635C623048314BA0
:10077000036010234360002383608022C260036112
:1007800043618361C36100F0D1F970B9284BA36361
:100790005C6200220521262000F080F9262000F06E
:1007A0008DF9A7E7FFF7D4FEDDE7FFF7D1FEEDE710
:1007B0001B4BDA6942F48022DA61DA6902F48022A2
:1007C0000292029A9A6942F008029A619B6903F0C8
:1007D00008030393039B4FF4806304930223059360
:1007E0000323079304AE144D3146284600F01CFB4A
:1007F0004FF4006304930024059406943146284680
:1008000000F012FB22460521272000F047F927209F
:1008100000F054F96EE700BF00440040004800407B
:100820000010024000080140D80000206C00024087
:100830009400002080000240000C0140FEE7FEE72B
:10084000FEE7FEE7FEE7704708B500F0CFF803F0DB
:1008500063F8012800D108BD01F01CFEFBE7000091
:1008600008B5024800F03EFA08BD00BFD8000020DD
:1008700008B5024800F036FA08BD00BF9400002019
:1008800008B5024801F068F908BD00BF6401002006
:1008900008B5024801F060F908BD00BF1C01002046
:1008A00008B54FF4805000F0DFFB08BD70B50C4672
:1008B0001646002506E0AFF30080214601F8010B43
:1008C00001350C46B542F6DB304670BD4FF0FF30C7
:1008D00070474FF400534B60002070470120704771
:1008E0000020704710B503460C4A0D490D480068BA
:1008F00040B10C4800680344521A934206D8094A92
:10090000136010BD0748084C0460F2E703F0DEFCFA
:100910000C2303604FF0FF30F3E700BF00500020CE
:1009200000040000C4010020681C00207047000083
:10093000FFF7FCFF0B480C490C4A002302E0D45897
:10094000C4500433C4188C42F9D3094A094C00231B
:1009500001E013600432A242FBD303F0BDFCFFF7B9
:1009600059FE7047000000206C000020F04E000887
:100970006C000020681C0020FEE7000010B5044653
:100980000E4B1A784FF47A73B3FBF2F30C4A1068EB
:10099000B0FBF3F000F0A0F868B90F2C01D90120EA
:1009A0000AE0002221464FF0FF3000F077F8054BB7
:1009B0001C60002000E0012010BD00BF04000020EA
:1009C000000000200800002008B5074A136843F023
:1009D00010031360032000F04FF80F20FFF7CEFF45
:1009E000FFF750FE002008BD00200240034A1168B6
:1009F000034B1B780B441360704700BFC8010020F5
:100A000004000020014B1868704700BFC801002097
:100A1000002808DB0901C9B200F1604000F561401F
:100A200080F80013704700F00F000901C9B2014BB4
:100A30001954704714ED00E000B500F00700C0F154
:100A4000070CBCF1040F28BF4FF0040C031D062B4C
:100A50000FD9C31E4FF0FF3E0EFA0CF021EA000141
:100A600099400EFA03FE22EA0E0241EA02005DF806
:100A700004FB0023EEE70000074AD36823F4E06399
:100A80001B041B0C000200F4E060034343F0BF634F
:100A900043F40033D360704700ED00E010B5044626
:100AA000054BD868C0F30220FFF7C6FF0146204679
:100AB000FFF7AEFF10BD00BF00ED00E0002807DB30
:100AC00000F01F02400901239340024A42F82030FF
:100AD000704700BF00E100E00138B0F1807F0BD229
:100AE0004FF0E0235861054AF02182F823100020DE
:100AF000986107221A6170470120704700ED00E0FD
:100B000030B40124056CAC40C56B6C600468636054
:100B10004368102B05D0036899600368DA6030BC25
:100B2000704703689A600368D960F8E750B310B45F
:100B300002460168144B0B441448A0FB03031B0935
:100B40009B001364124BD363022382F821300868A0
:100B50006FF30D10536894682343D46823431469DA
:100B600023435469234394692343D46923430343B0
:100B70000B6000209063012382F8213082F820006E
:100B800010BC704701207047F8FFFDBFCDCCCCCC26
:100B90000000024038B5044690F82000012831D00A
:100BA000012084F8200094F82100012804D00023BB
:100BB00084F82030022038BD022084F82100002073
:100BC000A0632568286820F0010028602046FFF710
:100BD00097FFE36A5BB12268136843F00E0313606A
:100BE0002268136843F0010313600020E3E72268E2
:100BF000136823F0040313602268136843F00A03A8
:100C00001360EDE70220D6E7034690F82120022A80
:100C100006D004228263002280F820200120704741
:100C200001680A6822F00E020A6001680A6822F070
:100C300001020A60026CC06B012101FA02F24260FB
:100C400083F82110002083F82000704708B590F841
:100C50002130022B03D004238363012008BD0268E6
:100C6000136823F00E0313600268136823F0010376
:100C700013600368194A934214D0143293421FD070
:100C8000143293421ED0143293421ED01432934237
:100C90001ED01432934202D04FF0807203E04FF422
:100CA000801200E001220E4B5A60012380F82130AF
:100CB000002380F82030436B6BB198470020CDE7CC
:100CC0001022F0E74FF48072EDE74FF48052EAE72C
:100CD0004FF48032E7E70020C0E700BF0800024081
:100CE0000000024038B5C36B1A6804682568016CBF
:100CF00004238B40134235D015F0040F32D0236803
:100D000013F0200F03D1236823F00403236003684A
:100D1000434A934214D01432934218D0143293426F
:100D200017D01432934217D01432934217D0143292
:100D3000934202D04FF0806203E04FF4800200E063
:100D40000422384B5A60C36A03B1984738BD402229
:100D5000F7E74FF48062F4E74FF48042F1E74FF495
:100D60008022EEE702238B4013423CD015F0020FA5
:100D700039D0236813F0200F06D1236823F00A032B
:100D80002360012380F821300368254A934214D060
:100D9000143293421CD0143293421BD0143293422B
:100DA0001BD0143293421BD01432934202D04FF026
:100DB000007203E04FF4001200E00222194B5A6067
:100DC000002380F82030836A002BBFD09847BDE70E
:100DD0002022F3E74FF40072F0E74FF40052EDE702
:100DE0004FF40032EAE708238B401342AED015F0EF
:100DF000080FABD0236823F00E032360026CC16B95
:100E0000012303FA02F24A60836380F82130002351
:100E100080F82030036B002B98D0984796E700BFEE
:100E2000080002400000024070B582B00024A446D1
:100E30009EE07C4DAB4214D00CD8A5F58015AB429A
:100E40000FD005F57025AB420BD0A5F58015AB4250
:100E50001FD106E0744DAB4203D005F58035AB429F
:100E600017D18B68A3B1012B0DD04261082410E08B
:100E7000CC680EE0CC6804340BE0CC68083408E0A1
:100E8000CC680C3405E00261082402E0002400E094
:100E90000424BEF1FF0F37D806464FEA8C023368B0
:100EA0000F25954023EA050304FA02F21343336049
:100EB0004B6813F0805F59D05C4B9A6942F0010295
:100EC0009A619B6903F001030193019B4FEA9C0225
:100ED000951C574B53F825600CF00305AD000F230C
:100EE000AB4026EA0306534B984214D003F58063C7
:100EF000984279D003F58063984277D003F58063F8
:100F0000984206D0042307E0061DACF108029200C7
:100F1000C5E7032300E00023AB4033430232444DD6
:100F200045F822304B6813F4801F61D0424A936821
:100F300043EA0E0393604B6813F4001F5ED03E4AF1
:100F4000D36843EA0E03D3604B6813F4003F5BD0D1
:100F5000394A536843EA0E0353604B6813F4803FE9
:100F600058D0354A136843EA0E0313600CF1010CA4
:100F70000B6833FA0CF253D0012202FA0CF203EAA6
:100F8000020E32EA0303F1D14B68122B3FF651AF48
:100F9000122B3FF67EAF01A555F823F0630E000833
:100FA000710E00087B0E00088D0E0008930E0008DD
:100FB000930E0008930E0008930E0008930E00088D
:100FC000930E0008930E0008930E0008930E00087D
:100FD000930E0008930E0008930E0008930E00086D
:100FE000750E0008810E0008012395E7022393E7A0
:100FF000114A936823EA0E0393609CE70E4AD36874
:1010000023EA0E03D3609FE70B4A536823EA0E03DB
:101010005360A2E7084A136823EA0E031360A5E7AA
:1010200002B070BD0000221000003110001002401C
:10103000000001400008014000040140836819429B
:1010400001D001207047002070470AB1016170474C
:10105000090401617047C36801EA030221EA030140
:1010600041EA02410161704708B5054B5B690342E3
:1010700000D108BD024B5861FFF74CFAF9E700BFF9
:101080000004014082B0084B1B68084AA2FB0323FE
:101090005B0A00FB03F3019300BF019B5A1E019200
:1010A000002BF9D102B0704700000020D34D621030
:1010B000002800F0F18170B582B00446036813F097
:1010C000010F2CD0994B5B6803F00C03042B1DD04F
:1010D000964B5B6803F00C03082B12D06368B3F5E2
:1010E000803F41D0002B55D103F1804303F50433F9
:1010F0001A6822F480321A601A6822F480221A6078
:1011000037E08A4B5B6813F4803FE7D0874B1B685E
:1011100013F4003F03D06368002B00F0BF81236805
:1011200013F0020F75D0814B5B6813F00C0F5FD08A
:101130007E4B5B6803F00C03082B54D02369002B13
:1011400000F08A807A4B01221A60FFF75BFC0546AB
:10115000764B1B6813F0020F75D1FFF753FC401B51
:101160000228F5D903209EE1704A136843F48033C6
:101170001360636843B3FFF745FC05466B4B1B6880
:1011800013F4003FCBD1FFF73DFC401B6428F5D999
:10119000032088E1B3F5A02F09D0644B1A6822F42C
:1011A00080321A601A6822F480221A60E1E703F1A3
:1011B0008043A3F53C331A6842F480221A601A680F
:1011C00042F480321A60D4E7FFF71CFC0546574B07
:1011D0001B6813F4003FA2D0FFF714FC401B6428E7
:1011E000F5D903205FE1514B5B6813F4803FA5D133
:1011F0004E4B1B6813F0020F03D02369012B40F004
:101200004F814A4A136823F0F803616943EAC10336
:101210001360236813F0080F33D0A369002B5CD050
:10122000434B0122C3F88024FFF7ECFB05463F4BFC
:101230005B6A13F0020F21D1FFF7E4FB401B022889
:10124000F5D903202FE1394A136823F0F8036169C7
:1012500043EAC1031360DCE7354B00221A60FFF755
:10126000D1FB0546314B1B6813F0020FD1D0FFF7BD
:10127000C9FB401B0228F5D9032014E10120FFF728
:1012800001FF236813F0040F00F09680274BDB6901
:1012900013F0805F34D1254BDA6942F08052DA6175
:1012A000DB6903F080530193019B0125214B1B68EF
:1012B00013F4807F26D0E368012B3DD0002B53D15F
:1012C00003F1804303F504331A6A22F001021A6223
:1012D0001A6A22F004021A6233E0154B0022C3F8A6
:1012E0008024FFF78FFB0546104B5B6A13F0020F5B
:1012F000C7D0FFF787FB401B0228F5D90320D2E0B7
:101300000025D3E70B4A136843F480731360FFF79B
:1013100079FB0646074B1B6813F4807FCBD1FFF7A0
:1013200071FB801B6428F5D90320BCE0001002404B
:1013300000004242007000405F4A136A43F001031C
:101340001362E36833B3FFF75DFB06465A4B1B6A33
:1013500013F0020F2FD1FFF755FB801B41F28833AA
:101360009842F3D903209EE0052B09D0524B1A6A0C
:1013700022F001021A621A6A22F004021A62E0E7FD
:101380004D4B1A6A42F004021A621A6A42F00102D4
:101390001A62D6E7FFF736FB0646474B1B6A13F087
:1013A000020F08D0FFF72EFB801B41F288339842D2
:1013B000F3D9032077E0E5B9E369002B72D03E4A08
:1013C000526802F00C02082A56D0022B17D03B4B71
:1013D00000221A66FFF716FB0446374B1B6813F012
:1013E000007F47D0FFF70EFB001B0228F5D9032032
:1013F00059E0314AD36923F08053D361DCE72F4BA6
:1014000000221A66FFF7FEFA05462B4B1B6813F005
:10141000007F06D0FFF7F6FA401B0228F5D903201B
:1014200041E0236AB3F5803F1AD023494B6823F487
:101430007413226A606A024313434B601F4B0122FC
:101440001A66FFF7DFFA04461B4B1B6813F0007F98
:101450000ED1FFF7D7FA001B0228F5D9032022E0AE
:10146000154A536823F40033A1680B435360DCE74B
:10147000002018E0002016E0012B16D00E4B5B6810
:1014800003F48031226A914211D103F47013626A2D
:1014900093420ED1002006E001207047012002E0B7
:1014A000012000E0002002B070BD0120FBE7012018
:1014B000F9E70120F7E700BF0010024000004242B8
:1014C0000F4B5B6803F00C02082A01D00D487047EF
:1014D000C3F383420C49885C13F4803F0BD0084B64
:1014E0005B68C3F34043094AD35C064A02FB00F041
:1014F000B0FBF3F07047064B03FB00F0704700BFF2
:101500000010024000127A00A44E0008A04E00080D
:1015100000093D00002800F0A08070B50D4604468B
:10152000524B1B6803F007038B420BD24F4A1368E0
:1015300023F007030B431360136803F007038B4288
:1015400040F08D80236813F0020F17D013F0040FC2
:1015500004D0474A536843F4E0635360236813F0B0
:10156000080F04D0424A536843F460535360404A22
:10157000536823F0F003A1680B435360236813F012
:10158000010F31D06368012B20D0022B25D0384ABF
:10159000126812F0020F64D035494A6822F0030243
:1015A00013434B60FFF72EFA0646314B5B6803F09E
:1015B0000C036268B3EB820F16D0FFF723FA801B8F
:1015C00041F288339842F0D9032045E0284A126856
:1015D00012F4003FE0D101203EE0254A126812F0EB
:1015E000007FD9D1012037E0204B1B6803F00703AF
:1015F000AB420AD91D4A136823F007032B4313603B
:10160000136803F00703AB422DD1236813F0040FD6
:1016100006D0174A536823F4E063E1680B43536034
:10162000236813F0080F07D0114A536823F460535E
:10163000216943EAC1035360FFF742FF0C4B5B682B
:10164000C3F303130B4AD35CD8400B4B18600B4B0E
:101650001868FFF793F9002070BD01207047012042
:10166000FAE70120F8E70120F6E700BF002002407A
:1016700000100240904E00080000002008000020EA
:10168000014B1868704700BF0000002008B5FFF745
:10169000F7FF044B5B68C3F30223034AD35CD840D3
:1016A00008BD00BF00100240884E000808B5FFF7D3
:1016B000E7FF044B5B68C3F3C223034AD35CD84003
:1016C00008BD00BF00100240884E0008026802F109
:1016D0000C0353E8003F23F0C0030C3242E8003112
:1016E0000029F3D1202380F841307047026802F1CD
:1016F0000C0353E8003F23F490730C3242E80031AE
:101700000029F3D1026802F1140353E8003F23F0EB
:101710000103143242E800310029F3D1036B012B9D
:1017200005D0202380F8423000230363704702680D
:1017300002F10C0353E8003F23F010030C3242E89F
:1017400000310029F3D1ECE790F84130212B01D092
:10175000022070478368B3F5805F17D0036A5A1C74
:1017600002621A7803685A60C38C9BB2013B9BB239
:10177000C3844BB90268D36823F08003D360026846
:10178000D36843F04003D360002070470369002B07
:10179000E4D1036A1B880268C3F308035360036A39
:1017A00002330362E0E7000010B5044602681369E3
:1017B00023F44053C1680B431361836802691343E8
:1017C00042691A430168CB6823F4B05323F00C0339
:1017D0001343CB600268536923F4407381690B4360
:1017E00053610268134B9A4220D0FFF74FFF024625
:1017F00002EB820202EB820263689B00B2FBF3F20F
:101800000D48A0FB02314909642303FB11231B018E
:101810003233A0FB03035B0903F0F00202EB011279
:1018200003F00F03216813448B6010BDFFF73EFFE8
:101830000246DDE7003801401F85EB512DE9F043FA
:1018400083B005460E4617469946DDF828802B687A
:101850001C6836EA04040CBF01240024BC4228D1D1
:10186000B8F1FF3FF3D0FFF7CDF8A0EB09004045FA
:1018700023D8B8F1000F22D02B68DA6812F0040FD9
:10188000E5D0802EE3D0402EE1D01A6812F0080F88
:10189000DDD0002401941A6801925B680193019BDA
:1018A0002846FFF723FF08236B6485F8404001209A
:1018B00000E0002003B0BDE8F0830320FAE7032036
:1018C000F8E760B310B5044690F8413013B3242311
:1018D00084F841302268D36823F40053D360204653
:1018E000FFF762FF2268136923F4904313612268B3
:1018F000536923F02A0353612268D36843F40053E9
:10190000D36000206064202384F8413084F84230A2
:10191000606310BD80F84030FEF7DEFED7E701209F
:1019200070472DE9F04182B01E4690F84130202BDF
:1019300056D104460D469046002955D00AB90120DB
:101940004FE000234364212380F84130FFF75AF829
:101950000746A4F82480A4F82680A368B3F5805F26
:1019600002D04FF0000814E023692BB34FF00008B9
:101970000FE0202384F84130032032E038F8023BA6
:101980002268C3F308035360E28C92B2013A92B228
:10199000E284E38C9BB293B100963B460022802107
:1019A0002046FFF74BFF0028E3D1002DE6D015F8C5
:1019B000012B23685A60E7E7A8460025E9E700966F
:1019C0003B46002240212046FFF738FF18B920236C
:1019D00084F8413005E0202384F84130032000E002
:1019E000022002B0BDE8F0810120FAE7704708B597
:1019F0000168CA6822F04002CA60202280F84120B3
:101A0000FFF7F4FF002008BD70477047704710B51E
:101A1000446A23685B6994F84120212A0FD0236827
:101A20005B6903F0400394F84220222A11D0636CD2
:101A300043F0100363642046FFF7E8FF10BD03F096
:101A40008003002BEBD00023E3842046FFF73EFE0B
:101A5000E5E7002BEBD00023E3852046FFF746FEA9
:101A6000E5E708B5406A0023C385C384FFF7CEFFCE
:101A700008BD90F84230222B69D18368B3F5805FAE
:101A80004FD0826AB3F5805F04D0002B56D1036932
:101A9000002B53D103685B681370836A0133836240
:101AA000C38D9BB2013B9BB2C385002B51D100B5C6
:101AB00083B00268D36823F02003D3600268D36840
:101AC00023F48073D3600268536923F001035361E8
:101AD000202380F8423000234363036B012B33D172
:101AE00000230363026802F10C0353E8003F23F074
:101AF00010030C3242E800310029F3D103681A6860
:101B000012F0100F06D0002201921A6801925B6851
:101B10000193019B818DFEF7B5FC002003B05DF8B9
:101B200004FB0269002AACD1826A03685B68C3F3D4
:101B300008031380836A02338362B1E703685B683A
:101B400003F07F031370A8E7FFF75EFFE5E70220CD
:101B5000704700207047000010B582B0044602684C
:101B60001368D068516913F00F0F09D113F0200FDB
:101B70000CD010F0200F09D02046FFF77AFF16E0B6
:101B800011F0010115D110F4907F12D1216B0129C0
:101B900079D013F0800F03D010F0800F40F0138144
:101BA00013F0400F03D010F0400F40F0108102B04E
:101BB00010BD13F0010F06D010F4807F03D0626CCB
:101BC00042F00102626413F0040F04D019B1626C98
:101BD00042F00202626413F0020F04D019B1626C89
:101BE00042F00402626413F0080F07D010F0200FD7
:101BF00000D119B1626C42F008026264626C002A82
:101C0000D5D013F0200F02D010F0200F29D1236877
:101C10005B6903F04003626C12F0080F00D163B3FC
:101C20002046FFF763FD23685B6913F0400F20D067
:101C3000226802F1140353E8003F23F040031432FA
:101C400042E800310029F3D1E36B73B1624A5A6371
:101C5000E06BFEF7FBFF0028A9D0E06B436B9847D1
:101C6000A5E72046FFF705FFD1E72046FFF7CEFEA8
:101C70009DE72046FFF7CAFE99E72046FFF7C6FE1C
:101C80000023636493E713F0100F82D010F0100F5D
:101C90003FF47FAF002301931368019353680193CE
:101CA000019B536913F0400F51D0E26B13685B68DE
:101CB0009BB2002B3FF47BAFA18D99427FF677AFAB
:101CC000E3859369202B37D0226802F10C0353E897
:101CD000003F23F480730C3242E800310029F3D135
:101CE000226802F1140353E8003F23F00103143289
:101CF00042E800310029F3D1226802F1140353E8CD
:101D0000003F23F04003143242E800310029F3D1B0
:101D1000202384F8423000232363226802F10C035D
:101D200053E8003F23F010030C3242E80031002951
:101D3000F3D1E06BFEF768FF02236363A18DE38DAF
:101D40009BB2C91A89B22046FEF79CFB2FE7A18DF2
:101D5000E38D9BB2C91A89B2E38D9BB2002B3FF48D
:101D600026AF00293FF423AF226802F10C0353E8A9
:101D7000003F23F490730C3242E800300028F3D186
:101D8000226802F1140353E8003F23F001031432E8
:101D900042E800300028F3D1202384F842300023A9
:101DA0002363226802F10C0353E8003F23F0100381
:101DB0000C3242E800300028F3D10223636320464E
:101DC000FEF760FBF3E62046FFF7BEFCEFE6204699
:101DD000FFF70DFEEBE600BF631A000808B5406A86
:101DE00001234363036B012B02D0FFF70EFE08BDF6
:101DF000818D4908FEF746FBF9E708B50346406ABE
:101E00001B681B6813F0200F2BD10023C3850268C9
:101E100002F10C0353E8003F23F480730C3242E8D4
:101E200000310029F3D1026802F1140353E8003FA6
:101E300023F00103143242E800310029F3D1026893
:101E400002F1140353E8003F23F04003143242E848
:101E500000310029F3D1202380F84230036B012B9D
:101E600007D000234363036B012B0FD0FFF7CCFD9A
:101E700008BD026802F10C0353E8003F23F0100391
:101E80000C3242E800310029F3D1EAE7818DFEF7F8
:101E9000F9FAEDE730B583B00446134681628285D6
:101EA00000254564222280F84220C26B1F489062C0
:101EB000E26B1F48D062E26B1E481063E26B556311
:101EC00020680A46011DE06BFEF764FE0195236859
:101ED0001A6801925B680193019B23695BB12268D8
:101EE00002F10C0353E8003F43F480730C3242E8E4
:101EF00000310029F3D1226802F1140353E8003FB6
:101F000043F00103143242E800310029F3D1226882
:101F100002F1140353E8003F43F04003143242E857
:101F200000310029F3D1002003B030BDFB1D0008B3
:101F3000DD1D00080F1A000890F84230202B27D131
:101F400010B582B0044629B312B9012002B010BD09
:101F50000123036300234363FFF79CFF236B012BE3
:101F600001D00120F2E70023019323681A6801924F
:101F70005B680193019B226802F10C0353E8003F68
:101F800043F010030C3242E800310029F3D1DDE7C1
:101F9000022070470120D9E7EFF305832BB9064BE8
:101FA000186828B901221A6070476FF00500704761
:101FB0004FF0FF30704700BF84080020EFF3058327
:101FC00073B90A4B1B68012B0DD110B50024084BC7
:101FD000DC77064B02221A6001F0FAF9204610BDA8
:101FE0006FF0050070474FF0FF3070478408002005
:101FF00000ED00E0F0B587B000240594EFF3058410
:1020000004BBF8B1002A34D0156893692BB11E4681
:10201000013B372B02D9002015E01826536813F036
:10202000010F3FD1546984B14FEA940C93682BB1EE
:10203000D7685B2F02D9176907B184B943B14FF054
:10204000FF330BB3059807B0F0BD4FF0800CEDE700
:10205000D368A3B91369ABB14FF0FF33F1E7029333
:10206000019700960B466246294601F043F9059018
:10207000E8E71546002318264FF0800CE1E74FF003
:10208000FF33DEE70023DCE705AB019300960B4648
:102090001FFA8CF2294601F068F90128D2D00023FA
:1020A0000593CFE70020CEE708B5EFF3058333B9FA
:1020B00008B9002008BD01F0EDFA0020FAE76FF042
:1020C0000500F7E730B583B0EFF30583002B3BD174
:1020D000144600283CD000293CD072B3936853B119
:1020E000D2684F2A07D922692AB101FB00F5D4F83A
:1020F00014C0AC451BD273B14FF0FF3363BB002259
:1021000000F0DFFC054605B304B1246821462846EB
:1021100000F02CFF19E0E3688BB9236913B14FF08D
:10212000FF33EBE763696BB14FF0FF33E6E7002560
:10213000009500F07CFC0546E5E70023DEE74FF064
:10214000FF33DBE70023D9E70025284603B030BD85
:102150000025FAE70025F8E70025F6E710B582B07C
:102160001C46EFF30583C3B118B329B33CBB00236E
:10217000019301AA00F08DFD012823D1019850B1EF
:102180004FF0E0234FF08052C3F8042DBFF34F8F80
:10219000BFF36F8F002002B010BDB0B1C1B10023FA
:1021A000224600F0B2FC012815D0B4B16FF0010056
:1021B000F1E76FF00300EEE76FF00300EBE76FF07D
:1021C0000300E8E76FF00200E5E76FF00300E2E7E5
:1021D0006FF00300DFE70020DDE76FF00200DAE7D1
:1021E00010B582B01C46EFF30583C3B110B321B321
:1021F00034BB0023019301AA00F061FE012822D123
:10220000019850B14FF0E0234FF08052C3F8042DF5
:10221000BFF34F8FBFF36F8F002002B010BDA8B186
:10222000B9B1224600F09CFD012815D0B4B16FF081
:102230000100F2E76FF00300EFE76FF00300ECE757
:102240006FF00300E9E76FF00200E6E76FF00300CC
:10225000E3E76FF00300E0E70020DEE76FF0020045
:10226000DBE70000034B0360034B0B60802313602C
:10227000704700BF2808002028060020034B036099
:10228000034B0B604FF4807313607047CC05002044
:10229000CC01002000F1080343604FF0FF32826060
:1022A000C36003610023036070470023036170472C
:1022B00043684B609A688A6051609960086103685E
:1022C00001330360704730B40D68B5F1FF3F11D0A2
:1022D00000F108031C465B681A68AA42FAD96368D1
:1022E0004B6099608C606160086103680133036032
:1022F00030BC70470469F2E70369416882688A600C
:10230000416851605A68824206D0002202611A6810
:10231000013A1A601868704782685A60F5E7000051
:1023200082B0002301930D4B1B68B3F1FF3F08D02F
:102330004FF0500383F31188BFF36F8FBFF34F8FBC
:10234000FEE74FF0500383F31188BFF36F8FBFF3A5
:102350004F8F019B002BFCD002B070470C00002077
:1023600006480068006880F3088862B661B6BFF36B
:102370004F8FBFF36F8F00DF00BF000008ED00E05C
:102380004FF0807340F8043C21F0010140F8081C34
:10239000034B40F80C3C40F8202C4038704700BFFD
:1023A00021230008000000000000000000000000E1
:1023B000074B19680868B0E8F00F80F30988BFF38D
:1023C0006F8F4FF0000080F311884EF00D0E7047B4
:1023D000EC1900204FF0500383F31188BFF36F8F87
:1023E000BFF34F8F0B4A136801331360012B00D0EA
:1023F00070474FF0E023D3F8043D13F0FF0FF7D000
:102400004FF0500383F31188BFF36F8FBFF34F8FEB
:10241000FEE700BF0C000020094B1B6843B94FF0DA
:10242000500383F31188BFF36F8FBFF34F8FFEE725
:10243000013B034A13600BB983F31188704700BF57
:102440000C00002000000000000000000000000060
:10245000EFF30980BFF36F8F0D4B1A6820E9F00F7F
:10246000106008B54FF0500080F3118801F038F982
:102470004FF0000080F31188BDE808401968086833
:10248000B0E8F00F80F30988BFF36F8F704700BF8B
:10249000EC19002008B54FF0500383F31188BFF307
:1024A0006F8FBFF34F8F00F0EDFF28B14FF0E023A7
:1024B0004FF08052C3F8042D002383F3118808BD28
:1024C0004FF0E022002313619361054B1B6805491F
:1024D000A1FB03139B09013B536107231361704761
:1024E00000000020D34D621010B582B02A4B1A783C
:1024F000D2B20192FF221A701B78DBB28DF8033042
:102500009DF8033003F05003244A1370244B072234
:102510001A6009E0224A1368013B13609DF80330FA
:102520005B00DBB28DF803309DF8033013F0800FB1
:10253000F0D11B4B1B68032B08D04FF0500383F3E3
:102540001188BFF36F8FBFF34F8FFEE71B02144A52
:10255000136003F4E0631360019BDBB20E4A137057
:102560004FF0E023D3F8202D42F47002C3F8202D61
:10257000D3F8202D42F07042C3F8202DFFF7A0FFC2
:102580000024084B1C60FFF7EBFE01F0A9F8FFF7F1
:10259000C7FE204602B010BD00E400E08C08002019
:1025A000880800200C000020EFF305830F2B0ED9C4
:1025B000114A9A5C114B1B789A4208D24FF0500393
:1025C00083F31188BFF36F8FBFF34F8FFEE74FF098
:1025D000E023D3F80C3D03F4E063094A1268934208
:1025E00008D94FF0500383F31188BFF36F8FBFF307
:1025F0004F8FFEE7704700BFF0E300E08C0800203B
:1026000088080020124A12F0070F1ED0D11D21F0B9
:102610000701C1F5406313440A460E4802600021D9
:1026200041601344083B23F007030B4803605960E3
:102630001960991A51601360084B1960084B1960B2
:10264000084B4FF000421A6070474FF44063E4E7D4
:10265000B0080020A8080020A40800209C08002042
:10266000A008002090080020154B1A461B688342E2
:10267000FBD3516802EB010C844509D0416800EBA3
:10268000010C634509D00360904218D01060704778
:102690004068014451601046F0E710B4094C2468CA
:1026A000A3420AD05B681944416013681B68036049
:1026B000904200D0106010BC70470460F8E770478B
:1026C000A8080020A408002038B5044600F0CCFE7D
:1026D000384B1B68B3B1384B1B681C4250D1002CDF
:1026E00050D004F1080214F0070F02D022F00702C4
:1026F0000832002A55D0314B1B68934253D33049DE
:102700000C6804E0FFF77EFFE5E721461C4663689E
:10271000934202D22368002BF7D1264B1B68A342B9
:1027200043D00D68083523680B6063689B1A102B33
:1027300010D9A01810F0070F08D04FF0500383F302
:102740001188BFF36F8FBFF34F8FFEE74360626066
:10275000FFF78AFF626819490B689B1A0B601949D9
:1027600009688B4201D217490B60134B1B68134356
:10277000636000232360144A13680133136002E08E
:10278000002500E0002500F009FF15F0070F0ED02E
:102790004FF0500383F31188BFF36F8FBFF34F8F58
:1027A000FEE70025EFE70025EDE70025EBE72846EB
:1027B00038BD00BFA408002090080020A008002019
:1027C000A80800209C08002098080020002834D089
:1027D00038B50446A0F1080550F8043C174A1268C1
:1027E000134208D14FF0500383F31188BFF36F8F6A
:1027F000BFF34F8FFEE750F8081C41B14FF0500374
:1028000083F31188BFF36F8FBFF34F8FFEE723EA87
:10281000020340F8043C00F027FE54F8041C084A68
:1028200013680B4413602846FFF71EFF054A136820
:102830000133136000F0B2FE38BD704790080020ED
:10284000A00800209408002010B50446FFF7C2FD40
:10285000A26BE36B9A4204D00024FFF7DDFD204613
:1028600010BD0124F9E710B50446FFF7B3FDA36BD3
:1028700023B90124FFF7D0FD204610BD0024F9E75D
:1028800070B504461546866B026C5AB903681BB1D5
:1028900000200136A66370BD806801F04DF800236A
:1028A000A360F6E76DB9406801F03DFD6368226CF6
:1028B00013446360A268934219D323686360284677
:1028C000E7E7C06801F02FFDE368226C51429B1AD4
:1028D000E3602268934202D2A3680B44E360022DB6
:1028E00001D00020D5E726B1013E0020D1E72846DF
:1028F000CFE70020CDE708B50346026C62B1084679
:10290000D9681144D960D3F808C0614501D319686A
:10291000D960D96801F007FD08BD38B50546FFF755
:1029200059FD95F8454064B201E0013C64B2002CC9
:102930000ADD6B6A43B105F1240000F051FF002865
:10294000F3D000F0E3FFF0E7FF2385F84530FFF711
:1029500063FDFFF73FFD95F8444064B201E0013CA0
:1029600064B2002C0ADD2B6943B105F1100000F0C0
:1029700037FF0028F3D000F0C9FFF0E7FF2385F808
:102980004430FFF749FD38BD38B5E0B10D46044687
:10299000FFF720FD2368E26B216C01FB0230A06091
:1029A0000020A0636360013A02FB0133E360FF2370
:1029B00084F8443084F84530FDB9236963B9FFF7E2
:1029C0002BFD012038BD4FF0500383F31188BFF376
:1029D0006F8FBFF34F8FFEE704F1100000F000FF90
:1029E0000028ECD04FF0E0234FF08052C3F8042DC4
:1029F000BFF34F8FBFF36F8FE1E704F11000FFF7D4
:102A000049FC04F12400FFF745FCD8E738B51D4622
:102A1000049C0B4649B92460E063236401212046ED
:102A2000FFF7B2FF84F84C5038BD2260F4E740B99C
:102A30004FF0500383F31188BFF36F8FBFF34F8FB5
:102A4000FEE710B584B01C46844653B192B189B9F3
:102A50004FF0500383F31188BFF36F8FBFF34F8F95
:102A6000FEE74FF0500383F31188BFF36F8FBFF37E
:102A70004F8FFEE76AB150230393039B502B13D073
:102A80004FF0500383F31188BFF36F8FBFF34F8F65
:102A9000FEE70029EFD04FF0500383F31188BFF316
:102AA0006F8FBFF34F8FFEE7039B012384F84630FF
:102AB00000949DF818306046FFF7A8FF204604B048
:102AC00010BD40B94FF0500383F31188BFF36F8FEF
:102AD000BFF34F8FFEE7F0B583B00D4614460646B0
:102AE00001FB00F05030FFF7EFFD074650B1002327
:102AF00080F846300090234600F1500229463046C7
:102B0000FFF784FF384603B0F0BDF0B585B0019201
:102B100088B10F461D460446B1B1022D20D1E36BAA
:102B2000012B1DD04FF0500383F31188BFF36F8F3B
:102B3000BFF34F8FFEE74FF0500383F31188BFF3CD
:102B40006F8FBFF34F8FFEE7036C002BE5D04FF084
:102B5000500383F31188BFF36F8FBFF34F8FFEE7EE
:102B600000F0DAFE064658B9019B002B48D04FF022
:102B7000500383F31188BFF36F8FBFF34F8FFEE7CE
:102B800000263DE02A4639462046FFF779FE636A73
:102B90007BB948B14FF0E0234FF08052C3F8042DC9
:102BA000BFF34F8FBFF36F8FFFF736FC012005B0E7
:102BB000F0BD04F1240000F013FE0028F4D04FF023
:102BC000E0234FF08052C3F8042DBFF34F8FBFF3C3
:102BD0006F8FE9E7FFF720FC0020E8E702A800F08C
:102BE00045FE012619E0002384F8443021E000234B
:102BF00084F8453023E02046FFF78FFE00F0CEFC3E
:102C0000FFF7E8FBA26BE36B9A42BBD3022DB9D06E
:102C1000019B002BDED0002EE0D0FFF7FDFB00F083
:102C200023FCFFF7D7FB94F8442052B2B2F1FF3FE8
:102C3000D9D094F8452052B2B2F1FF3FD7D0FFF778
:102C4000EBFB01A902A800F01DFED8B92046FFF752
:102C5000FBFD0028CFD0019904F1100000F08CFD9D
:102C60002046FFF75AFE00F099FC0028C8D14FF02B
:102C7000E0234FF08052C3F8042DBFF34F8FBFF312
:102C80006F8FBDE72046FFF748FE00F087FC00206D
:102C90008DE72DE9F84390B10F4616461C460546D0
:102CA000B1B1022C20D1EB6B012B1DD04FF05003A2
:102CB00083F31188BFF36F8FBFF34F8FFEE74FF0A1
:102CC000500383F31188BFF36F8FBFF34F8FFEE77D
:102CD000036C002BE5D04FF0500383F31188BFF352
:102CE0006F8FBFF34F8FFEE7FFF75EFCEFF31188A6
:102CF0004FF0500383F31188BFF36F8FBFF34F8FF3
:102D0000AA6BEB6B9A4206D3022C04D0002088F306
:102D10001188BDE8F88395F845904FFA89F9AB6BB7
:102D2000224639462846FFF7ABFDB9F1FF3F06D0F2
:102D300009F101035BB285F845300120E7E76B6AD2
:102D40000BB90120E3E705F1240000F049FD18B1BB
:102D500026B101203060DAE70120D8E70120D6E76C
:102D6000F0B585B0019290B10F460446C1B100F0B4
:102D7000D3FD064600BB019B002B5ED04FF05003F5
:102D800083F31188BFF36F8FBFF34F8FFEE74FF0D0
:102D9000500383F31188BFF36F8FBFF34F8FFEE7AC
:102DA000036C002BE3D04FF0500383F31188BFF383
:102DB0006F8FBFF34F8FFEE700263EE03946204677
:102DC000FFF799FD013DA563236923B9FFF724FBB4
:102DD000012005B0F0BD04F1100000F001FD002855
:102DE000F4D04FF0E0234FF08052C3F8042DBFF32E
:102DF0004F8FBFF36F8FE9E7FFF70EFB0020E8E787
:102E000002A800F033FD012621E0002384F84430BD
:102E100029E0002384F845302BE02046FFF77DFDB4
:102E200000F0BCFB09E02046FFF777FD00F0B6FBA1
:102E30002046FFF718FD00283FD1FFF7CBFAA56B1E
:102E4000002DBBD1019B002BD6D0002ED8D0FFF790
:102E5000E3FA00F009FBFFF7BDFA94F844305BB2E7
:102E6000B3F1FF3FD1D094F845305BB2B3F1FF3FEF
:102E7000CFD0FFF7D1FA01A902A800F003FD002886
:102E8000D1D12046FFF7EFFC0028C6D0019904F10C
:102E9000240000F071FC2046FFF73FFD00F07EFBB0
:102EA0000028CAD14FF0E0234FF08052C3F8042D20
:102EB000BFF34F8FBFF36F8FBFE7002089E72DE986
:102EC000F843B0B10D4690460446D9B1FFF76CFB0C
:102ED000EFF311874FF0500383F31188BFF36F8F27
:102EE000BFF34F8FA66BCEB9002087F31188BDE8E2
:102EF000F8834FF0500383F31188BFF36F8FBFF354
:102F00004F8FFEE7036C002BE0D04FF0500383F3AC
:102F10001188BFF36F8FBFF34F8FFEE794F8449093
:102F20004FFA89F929462046FFF7E5FC731EA36393
:102F3000B9F1FF3F06D009F101035BB284F84430D8
:102F40000120D2E723690BB90120CEE704F110007C
:102F500000F046FC30B1B8F1000F05D00120C8F8F0
:102F60000000C2E70120C0E70120BEE70023072BD5
:102F70000CD8074A52F833200AB10133F7E7044A64
:102F800042F8331002EBC30250607047704700BF35
:102F9000B014002070B504460D461646FFF71AFA25
:102FA00094F844305BB2B3F1FF3F0DD094F8453054
:102FB0005BB2B3F1FF3F0BD0FFF72EFAA36B5BB10F
:102FC0002046FFF7AAFC70BD002384F84430EDE7EB
:102FD000002384F84530EFE73246294604F1240007
:102FE00000F0E2FBECE70000084B1B681B6823B90C
:102FF000074B4FF0FF321A607047044B1B68DB68C9
:10300000DB685A68024B1A60704700BF60150020E9
:10301000F81400202DE9F04780460D4617469946E2
:10302000089EDDF824A00A9C9200A521206B01F0E7
:10303000FFF8236B07F18042013A03EB820727F088
:103040000707A5B34FF0000CBCF10F0F09D815F816
:103050000C3004EB0C0282F8343013B10CF1010C8B
:10306000F2E7002384F84330372E00D93726E66292
:10307000E66400252565201DFFF717F904F1180007
:10308000FFF713F92461C6F13806A661646265652D
:1030900084F858504A4641463846FFF771F9206097
:1030A000BAF1000F01D0CAF80040BDE8F087002354
:1030B00084F83430D8E7000038B5002407E004EB8A
:1030C000840293000E481844FFF7E4F80134372CCB
:1030D000F5D90C4D2846FFF7DDF80B4C2046FFF7DD
:1030E000D9F80A48FFF7D6F80948FFF7D3F8094896
:1030F000FFF7D0F8084B1D60084B1C6038BD00BFBF
:103100008C1500207815002064150020481500203B
:10311000341500201C150020601500205C150020CF
:1031200010B50446FFF756F9224A136801331360BD
:10313000214B1B685BB1214B1B686BB91E4B1B6895
:10314000DA6AE36A9A4207D81B4B1C6004E01A4B08
:103150001C601368012B29D0194A136801331360CE
:103160006364E06A174B1B68984201D9154B1860DD
:1031700000EB8000211D144B03EB8000FFF798F853
:10318000FFF74AF90D4B1B687BB10B4B1B68DA6AE2
:10319000E36A9A4209D24FF0E0234FF08052C3F81D
:1031A000042DBFF34F8FBFF36F8F10BDFFF784FF68
:1031B000D2E700BF18150020EC1900200C150020E4
:1031C000FC140020101500208C15002010B50446BA
:1031D00090F8593063B1012B11D0022B0ED04FF073
:1031E000500383F31188BFF36F8FBFF34F8FFEE758
:1031F000006BFFF7EBFA2046FFF7E8FA10BDFFF788
:10320000E5FAFBE70F4B1B68D3B110B5FFF7E2F807
:103210000D4BDB68DC68201DFFF76EF80B4A136866
:10322000013B1360074A1368013B1360FFF7F4F892
:103230002046FFF7CBFF034B1B68002BE6D110BDE8
:10324000704700BF301500203415002018150020ED
:1032500008B5FFF7D7FF074B1B68012BF9D94FF0D3
:10326000E0234FF08052C3F8042DBFF34F8FBFF31C
:103270006F8FEEE78C15002070B504460D46174B96
:103280001E68174B18680430FFF736F8B4F1FF3F9B
:103290000DD03444124B1B685C60A64210D9114B10
:1032A00018680F4B19680431FFF70DF870BD002D39
:1032B000EFD00B4B196804310B48FEF7F9FFF5E727
:1032C0000A4B1868064B19680431FEF7FCFF084BDF
:1032D0001B68A342EAD9064B1C60E7E714150020DF
:1032E000EC1900205C1500201C1500206015002042
:1032F000F814002030B587B00B9C7CB10C9DB5B1A3
:103300005C250495049D5C2D1AD04FF0500383F387
:103310001188BFF36F8FBFF34F8FFEE74FF050035D
:1033200083F31188BFF36F8FBFF34F8FFEE74FF02A
:10333000500383F31188BFF36F8FBFF34F8FFEE706
:10334000049D0C9D2C63022485F8594000240394AD
:10335000029505AC01940A9C0094FFF75BFE0C9863
:10336000FFF7DEFE059807B030BD2DE9F04385B0CC
:103370000746884614461E469000FFF7A5F908B395
:1033800081465C20FFF7A0F90546A8B1C0F830904F
:10339000002380F85930039302900D9B01930C9BFE
:1033A00000933346224641463846FFF733FE28460F
:1033B000FFF7B6FE012007E04846FFF707FA4FF097
:1033C000FF3001E04FF0FF3005B0BDE8F0830000B2
:1033D00010B588B000240594069407AA06A905A88C
:1033E000FEF740FF059B0293069B01930094234642
:1033F000079A17491748FFF77DFF174B1860C0B1B0
:1034000000F04EFB012815D14FF0500383F31188D3
:10341000BFF36F8FBFF34F8F104B4FF0FF321A6027
:103420000F4B01221A600F4B00221A60FFF75CF865
:1034300003E00020B0F1FF3F01D008B010BD4FF015
:10344000500383F31188BFF36F8FBFF34F8FFEE7F5
:10345000104E000851320008F4140020F814002027
:103460000C15002014150020024A13680133136064
:10347000704700BFF0140020014B1868704700BF70
:1034800014150020F8B53A4B1B68002B69D1394B55
:103490001D6801351D60C5B9374B1B681B6843B1FA
:1034A0004FF0500383F31188BFF36F8FBFF34F8F3B
:1034B000FEE7314A1168314B186810601960304AD4
:1034C000136801331360FFF78FFD2E4B1B68AB426F
:1034D0003DD900272C4B1B68DB6A03EB83039A0062
:1034E0002A4B9B58012B00D90127294B1B68002B25
:1034F0003CD001273AE001271F4B1B681B6843B3F0
:103500001D4B1B68DB68DC6863689D4226D3261D63
:103510003046FEF7F1FEA36A1BB104F11800FEF776
:10352000EBFEE36A1B4A1268934201D9194A136001
:1035300003EB83039A00314614481044FEF7B8FEAB
:10354000E26A114B1B68DB6A9A42D4D2D4E70027A7
:10355000D2E70C4B4FF0FF321A60BBE7094A136009
:10356000B8E70D4A13680133136000273846F8BDE9
:10357000F014002014150020601500205C150020B8
:1035800000150020F8140020EC1900208C150020F4
:1035900004150020101500200815002038B5354B03
:1035A0001B6843B94FF0500383F31188BFF36F8F4B
:1035B000BFF34F8FFEE7FEF70DFF2E4B1A68013A5F
:1035C0001A601B68002B4FD12B4B1B680BB90024D2
:1035D0004BE00024294B1B681BB3284BDB68DC68DD
:1035E00004F11800FEF788FE251D2846FEF784FE2C
:1035F000E06A234B1B68984201D9214B186000EB0D
:10360000800029461F4B03EB8000FEF751FEE26A63
:103610001D4B1B68DB6A9A42DCD31C4B01221A60EB
:10362000D8E70CB1FFF7E0FC194B1C6884B9174BC5
:103630001C68D4B14FF0E0234FF08052C3F8042D42
:10364000BFF34F8FBFF36F8F01240EE0013C07D013
:10365000FFF718FF0028F9D00C4B01221A60F5E79C
:103660000B4B00221A60E2E70024FEF7D5FE20464D
:1036700038BD00BFF01400201815002048150020A8
:10368000101500208C150020EC19002004150020D6
:103690000815002010B5A8B10446104B1B6843B1B3
:1036A0004FF0500383F31188BFF36F8FBFF34F8F39
:1036B000FEE7FFF7D9FE00212046FFF7DDFDFFF70B
:1036C0006DFF48B94FF0E0234FF08052C3F8042D4E
:1036D000BFF34F8FBFF36F8F10BD00BFF0140020FA
:1036E000204B1B681BB1204B01221A6070471E4BF8
:1036F00000221A601D4B1B6803EB83018A001C49E2
:103700008A585AB90BB1013BF6E74FF0500383F3E7
:103710001188BFF36F8FBFF34F8FFEE7084603EBAF
:1037200083018A00024451684968516003EB830CAD
:103730004FEA8C020832024491420BD003EB830221
:1037400091000B4A0A445268D1680A4A1160074A3C
:1037500013607047486862469100054A0A44506009
:10376000ECE700BFF0140020041500201015002025
:103770008C150020EC19002058B110B50C46094AF0
:1037800011681831FEF79FFD01212046FFF774FDF7
:1037900010BD4FF0500383F31188BFF36F8FBFF359
:1037A0004F8FFEE7EC19002038B570B10D46144676
:1037B0000A4A11681831FEF77BFD0CB14FF0FF3556
:1037C00021462846FFF758FD38BD4FF0500383F3DC
:1037D0001188BFF36F8FBFF34F8FFEE7EC19002006
:1037E00038B5C368DC6824B304F118052846FEF731
:1037F00083FD184B1B682BBB251D2846FEF77CFD5F
:10380000E06A154B1B68984201D9134B186000EB16
:1038100080002946114B03EB8000FEF749FDE26A68
:103820000F4B1B68DB6A9A4211D901200D4B1860BF
:1038300038BD4FF0500383F31188BFF36F8FBFF390
:103840004F8FFEE729460848FEF732FDE7E70020E4
:10385000EEE700BFF0140020101500208C150020AA
:10386000EC1900200415002048150020034B1B68AC
:103870000360034B1B684360704700BF00150020C6
:103880001415002038B5E0B10C46054611B3FEF71B
:10389000A1FD1C4B19686B68C81A2268B2F1FF3F82
:1038A00029D0DFF864C0DCF800C0D5F800E0E645B8
:1038B00001D08B4224D9824215D8002323600124F1
:1038C0001AE04FF0500383F31188BFF36F8FBFF3FB
:1038D0004F8FFEE74FF0500383F31188BFF36F8FD4
:1038E000BFF34F8FFEE75B1A134423602846FFF7B0
:1038F000BDFF002400E00024FEF78EFD204638BD09
:103900000124F9E71415002000150020014B0122C5
:103910001A60704704150020054B1B6833B1054B36
:103920001B680BB1002070470220704701207047D0
:103930000C150020F014002000283BD038B50446B8
:103940001E4B1B68834208D04FF0500383F311884D
:10395000BFF36F8FBFF34F8FFEE7036D43B94FF097
:10396000500383F31188BFF36F8FBFF34F8FFEE7D0
:10397000013B0365C16AC26C91421DD00BB10020AE
:1039800038BD051D2846FEF7B7FCE06CE062C0F1CB
:103990003803A3610A4B1B68984201D9084B186091
:1039A00000EB80002946074B03EB8000FEF780FC0C
:1039B0000120E5E7002070470020E1E7EC19002036
:1039C000101500208C150020064B1A6813682BB9BF
:1039D0000123036023B9D368186870470023F8E710
:1039E00000207047F01A002008B541600061914244
:1039F0000CD8D21A83699A4201D3012008BD011D57
:103A0000094B1868FEF75FFC0020F7E79A4201D2E5
:103A1000994206D2011D054B1868FEF754FC0020A0
:103A2000ECE70120EAE700BFEC1A0020F01A0020C2
:103A300030B583B0FEF7CEFC114B1B681BB1FEF70F
:103A4000EBFC03B030BD0F4D2846FEF723FC0E4CB7
:103A50002046FEF71FFC0D4B1D600D4B1C60002324
:103A600000930C4B0C4A10210A20FEF7E0FF044B98
:103A700018600028E3D00949FFF778FADFE700BFB4
:103A8000E81A0020081B0020F41A0020F01A002079
:103A9000EC1A0020F0190020401A0020184E0008EF
:103AA00010B588B0FFF7C4FF124B1B68CBB10024E0
:103AB0000594069407AA06A905A8FEF7DFFB059B57
:103AC0000293069B0193022300932346079A0A4917
:103AD0000A48FFF70FFC0A4B186010B1012008B02C
:103AE00010BD4FF0500383F31188BFF36F8FBFF306
:103AF0004F8FFEE7E81A0020204E0008053E000820
:103B0000E41A0020B8B19C4603461848006858B330
:103B100000B585B000910192029305291CDCFFF7E6
:103B2000FBFE022810D000231A4669460F480068A1
:103B3000FEF7EBFF15E04FF0500383F31188BFF35E
:103B40006F8FBFF34F8FFEE70023069A6946074841
:103B50000068FEF7DAFF04E0002362466946FFF7DB
:103B600098F805B05DF804FB00207047E81A0020C3
:103B700070B582B01B4B1B681A6862B3DB681E68A5
:103B8000DC68251D2846FEF7B7FB236A20469847C8
:103B900094F8283013F0040FECD0A36933449E420C
:103BA00007D26360246129460E4B1868FEF78BFB31
:103BB000E0E7002100910B4632462046FFF7A2FFC6
:103BC0000028D7D14FF0500383F31188BFF36F8FD4
:103BD000BFF34F8FFEE7044A106802490860136084
:103BE00002B070BDF01A0020EC1A002038B505466E
:103BF000FFF742FC0446074B1B68834205D80023AD
:103C00002B60044B1C60204638BDFFF7B1FF012339
:103C10002B60F6E7E01A002070B582B006460D462C
:103C200017490968C968CC68201DFEF765FB94F840
:103C300028C01CF0040F08D12CF0010C84F828C017
:103C4000236A2046984702B070BDA16933462A46D0
:103C500031442046FFF7C8FE0028F1D00021009132
:103C60000B4632462046FFF74DFF0028E8D14FF0C3
:103C7000500383F31188BFF36F8FBFF34F8FFEE7BD
:103C8000F01A002070B582B006460C46FFF7ECFB38
:103C900001A8FFF7ABFF019B33BB0546E4B9B04277
:103CA00013D22246711B124B1868FFF773F9FFF706
:103CB00075FCD8B94FF0E0234FF08052C3F8042DC3
:103CC000BFF34F8FBFF36F8F10E0FFF767FC2946FC
:103CD0003046FFF7A1FF09E0064A126812680AB9E8
:103CE0000124DEE71C46DCE7FFF758FC02B070BD9C
:103CF000E81A0020EC1A002010B588B002E0049BFE
:103D0000002B0FDA002204A93D4B1868FFF728F8B2
:103D1000002872D0049B002BF1DA07990698059BC6
:103D20009847ECE7069C636913B1201DFEF7E4FA9F
:103D300003A8FFF75BFF0246049B092BE2D8DFE8EC
:103D400003F00505052F364E05052F3694F828306B
:103D500043F0010384F82830059BA16919442046EB
:103D6000FFF742FE0028CDD0236A2046984794F8FA
:103D7000283013F0040FC5D0A269002100910B4632
:103D8000059802442046FFF7BDFE0028BAD14FF047
:103D9000500383F31188BFF36F8FBFF34F8FFEE79C
:103DA00094F8283023F0010384F82830AAE794F827
:103DB000283043F0010384F828300599A16129B126
:103DC000034601442046FFF70FFE9BE74FF05003E8
:103DD00083F31188BFF36F8FBFF34F8FFEE794F823
:103DE000283013F0020F04D023F0010384F82830A8
:103DF00088E72046FEF7EAFC84E708B010BD00BF64
:103E0000E81A002000B583B001A8FFF7DDFD019995
:103E1000FFF738FFFFF770FFF6E70000002310B54B
:103E20000446C0E90033C0E90433836081814366FE
:103E3000C2818361194608225C3000F0F9F90D4B0C
:103E4000246263620C4BA3620C4BE3620C4B236352
:103E50000C4B9C4206D003F16802944202D0D0334E
:103E60009C4205D104F15800BDE8104000F058BA5A
:103E700010BD00BF85400008A7400008DF400008D3
:103E8000054100081C1B0020024A0349034800F0BA
:103E90006BB800BF10000020D54B000820000020A8
:103EA00041680C4B10B59942044601D000F092FED7
:103EB000A168094B994202D0204600F08BFEE168D0
:103EC000064B994204D02046BDE8104000F082BE67
:103ED00010BD00BF1C1B0020841B0020EC1B002019
:103EE0000C4B0D4A10B504211A600C480022FFF754
:103EF00095FF0A4B01221C46092103F16800FFF7D8
:103F00008DFF04F1D0000222BDE810401221FFF71E
:103F100085BF00BF541C0020893E00081C1B0020E8
:103F2000014800F0FEB900BF5D1C0020014800F010
:103F3000F9B900BF5D1C002010B50446FFF7F0FF83
:103F4000236A1BB1BDE81040FFF7F0BF044B2362AA
:103F5000044B1B68002BF5D1FFF7C2FFF2E700BF4F
:103F6000A13E0008541C00202DE9F843074688466E
:103F700014460026D4E90195B9F1010905D5246854
:103F8000002CF7D13046BDE8F883AB89012B07D967
:103F9000B5F90E30013303D029463846C0470643F1
:103FA0006835E9E70FB407B5064904AB086853F86C
:103FB000042B8168019300F0E3FA03B05DF804EB91
:103FC00004B070471C000020036A70B505460E4619
:103FD00084680BB9FFF7B0FF636EDB0705D4A389D4
:103FE000980502D4A06D00F09CF9A389190702D5A9
:103FF0002369002B35D12146284600F0C5F880B34F
:104000004FF0FF35636EDA0705D4A3899B0502D410
:10401000A06D00F087F9284670BD002B04DAA26974
:10402000934217DB0A2915D023685A1C22601970A5
:10403000A36816F8011F013BA3600029EDD1002BF6
:1040400011DA22460A21284600F060F80130D7D064
:104050000A25D7E72246284600F058F80130E7D174
:10406000CEE7013EE4E723685A1C22600A221A7058
:10407000EEE70000024B01461868FFF7A5BF00BF3E
:104080001C00002010B50C46B1F90E1000F0FAF833
:104090000028ABBF636DA3891B1823F48053ACBF0A
:1040A0006365A38110BD2DE9F0411F468B8905464C
:1040B000DB050C46164605D502230022B1F90E1089
:1040C00000F0CEF8A389324623F48053A38128461A
:1040D0003B46B4F90E10BDE8F04100F0E5B810B56C
:1040E0000C46B1F90E1000F0BBF8B4F90C30421CCC
:1040F0000BBF23F4805343F48053A381A38118BFE3
:10410000606510BDB1F90E1000F09AB8F8B50E4612
:104110001446054618B1036A0BB9FFF70DFFA369F2
:10412000A360A3891A0701D5236943B9214628460C
:1041300000F02AF818B14FF0FF373846F8BD236871
:104140002269F6B2981A63693746834205DC214634
:10415000284600F03FFD0028EDD1A368013BA36095
:1041600023685A1C22601E706269431C9A4204D064
:10417000A389DB07E1D50A2EDFD12146284600F0CE
:1041800029FD0028D9D0D6E738B5284B0546186850
:104190000C4618B1036A0BB9FFF7CEFEB4F90C3028
:1041A0001A0721D4D80607D409222A6043F0400315
:1041B0004FF0FF30A38130E0590712D5616B41B158
:1041C00004F14403994202D0284600F0BBF80023D2
:1041D00063630022B4F90C306260226923F0240387
:1041E000226043F00803A38122693AB99A0501D5F8
:1041F000180603D52146284600F038FDB4F90C30E6
:1042000013F001020AD00022A26062695242A26148
:10421000226942B913F08000C8D138BD990758BF50
:104220006269A260F4E70020F7E700BF1C000020ED
:1042300003460244934200D1704703F8011BF9E79B
:1042400038B50023054D044608462B60FCF73EFBBD
:10425000431C02D12B6803B1236038BD581C0020D9
:1042600038B50446084611460022054D2A601A4614
:10427000FCF736FB431C02D12B6803B1236038BD29
:10428000581C002038B50446084611460022054D4A
:104290002A601A46FCF70AFB431C02D12B6803B1C3
:1042A000236038BD581C002038B504460846114626
:1042B0000022054D2A601A46FCF7D8F8431C02D1AB
:1042C0002B6803B1236038BD581C0020014B1868CF
:1042D000704700BF1C00002070B500260C4D0D4B30
:1042E0005B1B9C10A64209D1002600F039FD0A4D47
:1042F0000A4B5B1B9C10A64205D170BD55F8043BD0
:1043000098470136EEE755F8043B98470136F2E747
:10431000E84E0008E84E0008E84E0008EC4E0008A1
:104320007047704770470A44914200F1FF3300D153
:10433000704710B511F8014B914203F8014FF9D1C4
:1043400010BD000038B50546002940D051F8043CA6
:104350000C1F002BB8BFE41800F0DEF81C4A1368ED
:1043600033B9636014602846BDE8384000F0DAB81D
:10437000A34208D9206821188B4201BF19685B68E5
:1043800009182160EDE71A465B680BB1A342FAD920
:1043900011685018A0420BD1206801445018834284
:1043A0001160E0D118685B68084410605360DAE778
:1043B00002D90C232B60D6E7206821188B4201BF5D
:1043C00019685B680918216063605460CBE738BDE9
:1043D000641C002070B50F4E0C463168054611B9BB
:1043E00000F0A0FC30602146284600F09BFC431CF6
:1043F00003D14FF0FF34204670BDC41C24F00304E9
:10440000A042F8D0211A284600F08CFC0130F2D1ED
:10441000EFE700BF601C00202DE9F843CD1C25F01C
:10442000030508350C2D38BF0C25002D064601DB91
:10443000A94204D90C2333600020BDE8F883DFF8DB
:10444000D48000F069F8D8F800301C4644BB2946F7
:104450003046FFF7BFFF431C044658D1D8F8004050
:104460002746002F43D1002C4BD0236839463046D5
:1044700004EB030900F056FC814542D12168304627
:104480006D1A2946FFF7A6FF01303AD023682B4466
:104490002360D8F800305A6862BBC8F800700FE09B
:1044A0002268521B20D40B2A17D96119A342256018
:1044B00018BF5960636808BFC8F8001062514B60AC
:1044C000304600F02FF804F10B00231D20F0070008
:1044D000C21A1CBF1B1AA350AFE76268A3420CBFED
:1044E000C8F800205A60EBE723466468AEE73C4614
:1044F0007F68B6E71A465B68A342FBD1002353608E
:10450000DEE70C233046336000F00CF894E70560DA
:10451000D6E700BF641C00200148FFF702BF00BFC0
:104520005C1C00200148FFF7FDBE00BF5C1C0020A2
:10453000936810B4013B002B936007DA9469A3429F
:1045400001DB0A2902D110BCFFF7E0BD1368581C3B
:1045500010601970084610BC7047F8B506460F4643
:104560001446D518AC4201D1002007E03A46304647
:1045700014F8011BFFF7DCFF431CF3D1F8BD00006A
:104580002DE9F0470D4614461F4606469CB018B16B
:10459000036A0BB9FFF7D0FC6B6ED90705D4AB8962
:1045A0009A0502D4A86DFFF7BCFEAB891B0701D5A5
:1045B0002B699BB929463046FFF7E6FD70B16B6E5B
:1045C000DC0704D54FF0FF301CB0BDE8F087AB89A5
:1045D0009805F7D4A86DFFF7A5FEF3E7002309932C
:1045E00020238DF8293030234FF001080397694FBD
:1045F0008DF82A302346994613F8012B0AB1252A53
:10460000F9D1B9EB040A0BD053462246294630466D
:10461000FFF7A3FF013000F0A480099A52440992E9
:1046200099F80030002B00F09C8000234FF0FF32FF
:10463000CDE9052309F10109049307938DF853305F
:104640001A934C46052214F8011B524800F07AFBDD
:10465000049BD0B9D90644BF20228DF853201A07F5
:1046600044BF2B228DF8532099F800202A2A13D01A
:104670004C4600204FF00A0C079A214611F8013BE6
:10468000303B092B49D968B913E0C01B08FA00F088
:104690001843A1460490D4E7039A111D12680391B0
:1046A000002A01DB079204E0524243F00203079222
:1046B000049323782E2B0AD163782A2B32D1039BC3
:1046C00002341A1D1B68039243EAE3730593DFF873
:1046D000C89003224846217800F034FB38B14022CC
:1046E000049BA0EB0900824013430134049314F8A7
:1046F000011B062229488DF8281000F023FB002812
:104700003ED0274818BB039B073323F00703083329
:104710000393099B034409936CE70C4601200CFBAF
:104720000232AAE700234FF00A0C19460134059320
:10473000204610F8012B303A092A03D9002BC6D0A5
:104740000591C4E7044601230CFB0121F0E703AB0C
:1047500000932A463046134B04A9AFF30080431C54
:10476000D7D16B6ED90705D4AB899A0502D4A86D51
:10477000FFF7D8FDAB895B063FF524AF099823E727
:1047800003AB00932A463046064B04A900F07EF89E
:10479000E5E700BFB44E0008BA4E0008BE4E000860
:1047A000000000005B4500082DE9F04716469846DA
:1047B0008A680B6907469342B8BF1346336091F885
:1047C00043200C46DDF820900AB1013333602368A2
:1047D000990642BF336802333360256815F0060539
:1047E00006D104F1190AE36832689B1AAB422BDC4C
:1047F00094F843302268003B18BF0123920630D45E
:104800004146384604F14302C847013023D02368AB
:10481000226903F00603042B14BF002533684FF010
:10482000000608BFE56804F11A0408BFED1A54F841
:10483000123C08BF25EAE5759342C4BF9B1AED18E8
:10484000B5421AD1002008E00123524641463846BD
:10485000C847013003D14FF0FF30BDE8F087013584
:10486000C1E73020E11881F843005A1C94F8451044
:104870002244023382F84310C2E701232246414614
:104880003846C8470130E6D00136D9E72DE9F04374
:104890000D7E85B0782D904607460C4699460C9EB5
:1048A00001F1430207D8622D0AD8002D00F0D7800D
:1048B000582D00F0BC8004F1420684F842503BE0E1
:1048C000A5F16303152BF6D801A151F823F000BF21
:1048D000294900083D490008B7480008B7480008C2
:1048E000B7480008B74800083D490008B748000825
:1048F000B7480008B7480008B7480008454A00080C
:1049000067490008F7490008B7480008B748000899
:10491000674A0008B748000867490008B748000818
:10492000B7480008FF49000833681A1D1B68326049
:1049300004F1420684F842300123A1E03368206884
:10494000191D3160060601D51D6803E04506FBD53B
:10495000B3F90050002D03DA2D236D4284F8433063
:104960000A235B4811E021683368080653F8045BAA
:1049700002D4490648BFADB23360237E54486F2B42
:104980005CD10823002184F843106668002EA660DD
:1049900005DB21682E4321F00401216050D016462A
:1049A000B5FBF3F103FB115C10F80CC006F801CD68
:1049B000AC4663450D46F3D9082B0BD12368DB07C2
:1049C00008D5236961689942DEBF302306F8013CAF
:1049D00006F1FF36921B2261434621463846CDF848
:1049E000009003AAFFF7E0FE01304ED14FF0FF30F8
:1049F00005B0BDE8F083236843F0200323607825E9
:104A0000344884F845502368316813F0800F51F81A
:104A1000045B03D113F0400F18BFADB23160D9076A
:104A200044BF43F0200323601DB11023AAE72848A8
:104A3000E7E7236823F020032360F6E70A23A1E7D2
:104A40001646B9E733682568181D616930602E067F
:104A50001B6801D5196002E06806FBD519800023A8
:104A600016462361B8E7336800211A1D32601E68BC
:104A70006268304600F066F908B1801B60606368C8
:104A80002361002384F84330A6E732464146384686
:104A90002369C8470130A9D023689B0713D4E06875
:104AA000039B9842B8BF1846A2E70123324641460D
:104AB0003846C847013099D00135E36803995B1A3D
:104AC000AB42F2DCEBE7002504F11906F5E700BF85
:104AD000C54E0008D64E0008B1F90C20F8B51607EF
:104AE00005460C4651D44B68002B02DC0B6C002BA6
:104AF00049DDE66A002E46D0002312F480522F686A
:104B00002B6031D0626DA389590705D56368D21A2D
:104B1000636B0BB1236CD21A00232846E66A216A24
:104B2000B047421CB4F90C3006D129681D2945D87C
:104B3000274ACA40D60741D5002262602269D904BB
:104B4000226004D5421C01D12B6803B96065616BFA
:104B50002F60C1B104F14403994202D02846FFF707
:104B6000F1FB002363630EE001232846216AB0476E
:104B70000246501CC7D12B68002BC4D01D2B01D07E
:104B8000162B19D12F6000201DE00F69002FFAD0DD
:104B9000930718BF00230E6808BF4B69F61B0F6010
:104BA0008B60002EEFDD33463A462846216AD4F862
:104BB00028C0E047002807DCB4F90C304FF0FF3084
:104BC00043F04003A381F8BD0744361AE9E700BF6C
:104BD0000100402038B50B6905460C4613B9002585
:104BE000284638BD18B1036A0BB9FFF7A5F9B4F927
:104BF0000C30002BF3D0626ED00704D4990502D498
:104C0000A06DFFF78EFB28462146FFF765FF636E18
:104C10000546DA07E4D4A3899B05E1D4A06DFFF72C
:104C200081FBDDE770B50C46B1F90E101546002981
:104C30001E4696B00ADAA18911F0800113D14FF413
:104C40008062002031602A6016B070BD6A4600F0B4
:104C500047F80028EFDB019901F47041A1F50053FA
:104C600059425941EBE700214022EAE78B8973B5AD
:104C70009E0705460C4607D504F1470323602361D0
:104C80000123636102B070BD01AB6A46FFF7CAFF42
:104C9000009E28463146FFF7BFFBB4F90C3038B907
:104CA0009A05EFD423F0030343F00203A381E3E763
:104CB00043F08003A381019BC4E904062060002B1C
:104CC000E0D02846B4F90E1000F01CF80028D9D026
:104CD000A38923F0030343F00103A381D2E700007B
:104CE00038B50023064D0446084611462B60FBF7F5
:104CF000F0FD431C02D12B6803B1236038BD00BF17
:104D0000581C002038B50023054D044608462B608A
:104D1000FBF7E4FD431C02D12B6803B1236038BDCF
:104D2000581C002038B50023054D044608462B606A
:104D3000FBF7D8FD431C02D12B6803B1236038BDBB
:104D4000581C0020034610B5C9B2024493421846CD
:104D500001D1002003E0047801338C42F6D110BD6C
:104D6000F8B500BFF8BC08BC9E467047F8B500BF58
:084D7000F8BC08BC9E46704728
:104D78005243204368616E6E656C733A2025642C3B
:104D880025642C25642C25642C25640A0000000069
:104D98005377697463683A2025632C25630A0000F9
:104DA8004D6F7573653A20783D25642C793D2564EF
:104DB8002C7A3D25642C6C6566743D25642C7269DB
:104DC8006768743D25640A004B6579733A2030782A
:104DD800253034580A0000004B455920507265733D
:104DE8007365640052656D6F74655175657565000E
:104DF80052656D6F74655461736B0000446562752C
:104E0800675461736B00000049444C450000000082
:104E1800546D725100000000546D72205376630087
:104E2800EC4D000800000000000000000000000039
:104E38000000000000000000F84D0008000000001D
:104E48000000000000000000000000000002000058
:104E5800080000000000000000000000044E0008E8
:104E6800000000000000000000000000000000003A
:104E78000002000018000000000000000000000010
:104E88000000000001020304000000000000000010
:104E980001020304060708090102000002030405D1
:104EA800060708090A0B0C0D0E0F1010232D302BC6
:104EB8002000686C4C006566674546470030313213
:104EC800333435363738394142434445460030316A
:104ED80032333435363738396162636465660000C9
:044EE8007901000844
:044EEC005101000868
:104EF00000127A000100000010000000AAAAAAAA6D
:104F000000000000030000001C1B00202000002007
:104F1000000000001C1B0020841B0020EC1B002054
:104F20000000000000000000000000000000000081
:104F30000000000000000000000000000000000071
:104F40000000000000000000000000000000000061
:0C4F500000000000000000000000000055
:0400000508000931B5
:00000001FF
